{
  "contracts/BurnToClaim.sol": {
    "BurnToClaim": {
      "abi": [
        {
          "anonymous": false,
          "inputs": [
            {
              "indexed": true,
              "internalType": "bytes32",
              "name": "transactionId",
              "type": "bytes32"
            }
          ],
          "name": "entryTransactionEvent",
          "type": "event"
        },
        {
          "anonymous": false,
          "inputs": [
            {
              "indexed": true,
              "internalType": "bytes32",
              "name": "transactionId",
              "type": "bytes32"
            },
            {
              "indexed": true,
              "internalType": "address",
              "name": "sender",
              "type": "address"
            },
            {
              "indexed": true,
              "internalType": "address",
              "name": "receiver",
              "type": "address"
            },
            {
              "indexed": false,
              "internalType": "address",
              "name": "tokenContract",
              "type": "address"
            },
            {
              "indexed": false,
              "internalType": "uint256",
              "name": "amount",
              "type": "uint256"
            },
            {
              "indexed": false,
              "internalType": "bytes32",
              "name": "hashlock",
              "type": "bytes32"
            },
            {
              "indexed": false,
              "internalType": "uint256",
              "name": "timelock",
              "type": "uint256"
            }
          ],
          "name": "exitTransactionEvent",
          "type": "event"
        },
        {
          "anonymous": false,
          "inputs": [
            {
              "indexed": true,
              "internalType": "bytes32",
              "name": "transactionId",
              "type": "bytes32"
            }
          ],
          "name": "reclaimTransactionEvent",
          "type": "event"
        },
        {
          "anonymous": false,
          "inputs": [
            {
              "indexed": false,
              "internalType": "string",
              "name": "message",
              "type": "string"
            }
          ],
          "name": "requireMockEvent",
          "type": "event"
        },
        {
          "anonymous": false,
          "inputs": [
            {
              "indexed": false,
              "internalType": "string",
              "name": "message",
              "type": "string"
            }
          ],
          "name": "revertMockEvent",
          "type": "event"
        },
        {
          "inputs": [
            {
              "internalType": "address",
              "name": "_crosschainContractAddress",
              "type": "address"
            },
            {
              "internalType": "bytes32",
              "name": "_transactionId",
              "type": "bytes32"
            },
            {
              "internalType": "address",
              "name": "_burnAddress",
              "type": "address"
            },
            {
              "internalType": "bytes32",
              "name": "_hashlock",
              "type": "bytes32"
            },
            {
              "internalType": "uint256",
              "name": "_timelock",
              "type": "uint256"
            },
            {
              "internalType": "address",
              "name": "_tokenContract",
              "type": "address"
            },
            {
              "internalType": "uint256",
              "name": "_amount",
              "type": "uint256"
            }
          ],
          "name": "add",
          "outputs": [],
          "stateMutability": "nonpayable",
          "type": "function"
        },
        {
          "inputs": [
            {
              "internalType": "address",
              "name": "_tokenContract",
              "type": "address"
            },
            {
              "internalType": "address",
              "name": "_recipient",
              "type": "address"
            },
            {
              "internalType": "uint256",
              "name": "_amount",
              "type": "uint256"
            }
          ],
          "name": "btcTransfer",
          "outputs": [],
          "stateMutability": "nonpayable",
          "type": "function"
        },
        {
          "inputs": [
            {
              "internalType": "address",
              "name": "_tokenContract",
              "type": "address"
            },
            {
              "internalType": "address",
              "name": "_sender",
              "type": "address"
            },
            {
              "internalType": "address",
              "name": "_recipient",
              "type": "address"
            },
            {
              "internalType": "uint256",
              "name": "_amount",
              "type": "uint256"
            }
          ],
          "name": "btcTransferFrom",
          "outputs": [],
          "stateMutability": "nonpayable",
          "type": "function"
        },
        {
          "inputs": [
            {
              "internalType": "uint256",
              "name": "_amount",
              "type": "uint256"
            },
            {
              "internalType": "address",
              "name": "_receiver",
              "type": "address"
            },
            {
              "internalType": "bytes32",
              "name": "_transactionId",
              "type": "bytes32"
            },
            {
              "internalType": "bytes32",
              "name": "_preimage",
              "type": "bytes32"
            }
          ],
          "name": "entryTransaction",
          "outputs": [
            {
              "internalType": "bool",
              "name": "",
              "type": "bool"
            }
          ],
          "stateMutability": "nonpayable",
          "type": "function"
        },
        {
          "inputs": [
            {
              "internalType": "address",
              "name": "_burnAddress",
              "type": "address"
            },
            {
              "internalType": "bytes32",
              "name": "_hashlock",
              "type": "bytes32"
            },
            {
              "internalType": "uint256",
              "name": "_timelock",
              "type": "uint256"
            },
            {
              "internalType": "address",
              "name": "_tokenContract",
              "type": "address"
            },
            {
              "internalType": "uint256",
              "name": "_amount",
              "type": "uint256"
            }
          ],
          "name": "exitTransaction",
          "outputs": [
            {
              "internalType": "bytes32",
              "name": "transactionId",
              "type": "bytes32"
            }
          ],
          "stateMutability": "nonpayable",
          "type": "function"
        },
        {
          "inputs": [
            {
              "internalType": "bytes32",
              "name": "_transactionId",
              "type": "bytes32"
            }
          ],
          "name": "getContract",
          "outputs": [
            {
              "internalType": "address",
              "name": "sender",
              "type": "address"
            },
            {
              "internalType": "address",
              "name": "receiver",
              "type": "address"
            },
            {
              "internalType": "address",
              "name": "tokenContract",
              "type": "address"
            },
            {
              "internalType": "uint256",
              "name": "amount",
              "type": "uint256"
            },
            {
              "internalType": "bytes32",
              "name": "hashlock",
              "type": "bytes32"
            },
            {
              "internalType": "uint256",
              "name": "timelock",
              "type": "uint256"
            },
            {
              "internalType": "bool",
              "name": "withdrawn",
              "type": "bool"
            },
            {
              "internalType": "bool",
              "name": "refunded",
              "type": "bool"
            },
            {
              "internalType": "bytes32",
              "name": "preimage",
              "type": "bytes32"
            }
          ],
          "stateMutability": "view",
          "type": "function"
        },
        {
          "inputs": [
            {
              "internalType": "bytes32",
              "name": "_transactionId",
              "type": "bytes32"
            }
          ],
          "name": "reclaimTransaction",
          "outputs": [
            {
              "internalType": "bool",
              "name": "",
              "type": "bool"
            }
          ],
          "stateMutability": "nonpayable",
          "type": "function"
        },
        {
          "inputs": [
            {
              "internalType": "bytes32",
              "name": "_transactionId",
              "type": "bytes32"
            }
          ],
          "name": "reclaimTransaction1",
          "outputs": [
            {
              "internalType": "bool",
              "name": "",
              "type": "bool"
            }
          ],
          "stateMutability": "nonpayable",
          "type": "function"
        },
        {
          "inputs": [
            {
              "internalType": "address",
              "name": "contractAddress",
              "type": "address"
            }
          ],
          "name": "registerContract",
          "outputs": [],
          "stateMutability": "nonpayable",
          "type": "function"
        },
        {
          "inputs": [
            {
              "internalType": "bool",
              "name": "result",
              "type": "bool"
            },
            {
              "internalType": "string",
              "name": "message",
              "type": "string"
            }
          ],
          "name": "requireMock",
          "outputs": [],
          "stateMutability": "nonpayable",
          "type": "function"
        },
        {
          "inputs": [
            {
              "internalType": "address",
              "name": "_crosschainContractAddress",
              "type": "address"
            },
            {
              "internalType": "bytes32",
              "name": "_transactionId",
              "type": "bytes32"
            },
            {
              "internalType": "bytes32",
              "name": "_preimage",
              "type": "bytes32"
            }
          ],
          "name": "update",
          "outputs": [],
          "stateMutability": "nonpayable",
          "type": "function"
        }
      ],
      "evm": {
        "bytecode": {
          "linkReferences": {},
          "object": "608060405234801561001057600080fd5b50612530806100206000396000f3fe608060405234801561001057600080fd5b50600436106100a95760003560e01c806364ff30041161007157806364ff30041461018a5780636d0c27a8146101a6578063cbbd8a1d146101c2578063d9d1ca47146101de578063e16c7d98146101fa578063f46611f914610232576100a9565b8063159a962c146100ae57806322a5dde4146100de57806340d1ce73146100fa578063449b03951461012a5780634cc28a191461015a575b600080fd5b6100c860048036038101906100c39190611b9e565b61024e565b6040516100d591906120b9565b60405180910390f35b6100f860048036038101906100f391906119d6565b61074f565b005b610114600480360381019061010f9190611c92565b61087b565b604051610121919061209e565b60405180910390f35b610144600480360381019061013f9190611d0d565b610bb8565b604051610151919061209e565b60405180910390f35b610174600480360381019061016f9190611c92565b610ecc565b604051610181919061209e565b60405180910390f35b6101a4600480360381019061019f9190611b4f565b611243565b005b6101c060048036038101906101bb9190611a62565b6112f6565b005b6101dc60048036038101906101d79190611ab1565b6113c7565b005b6101f860048036038101906101f391906119ff565b61161f565b005b610214600480360381019061020f9190611c92565b6116f3565b60405161022999989796959493929190611f6c565b60405180910390f35b61024c60048036038101906102479190611c3e565b611824565b005b600080429050610296600084116040518060400160405280601881526020017f746f6b656e20616d6f756e74206d757374206265203e20300000000000000000815250611824565b610345838573ffffffffffffffffffffffffffffffffffffffff1663dd62ed3e33306040518363ffffffff1660e01b81526004016102d5929190611f43565b60206040518083038186803b1580156102ed57600080fd5b505afa158015610301573d6000803e3d6000fd5b505050506040513d601f19601f820116820180604052508101906103259190611ce4565b101560405180606001604052806021815260200161247960219139611824565b6103698186116040518060600160405280602381526020016123dd60239139611824565b6002338886868a8a60405160200161038696959493929190611ea1565b6040516020818303038152906040526040516103a29190611f2c565b602060405180830381855afa1580156103bf573d6000803e3d6000fd5b5050506040513d601f19601f820116820180604052508101906103e29190611cbb565b91506103ed8261186d565b1561042d576040517f08c379a0000000000000000000000000000000000000000000000000000000008152600401610424906120f6565b60405180910390fd5b8373ffffffffffffffffffffffffffffffffffffffff166323b872dd3389866040518463ffffffff1660e01b815260040161046a93929190611ff9565b602060405180830381600087803b15801561048457600080fd5b505af1158015610498573d6000803e3d6000fd5b505050506040513d601f19601f820116820180604052508101906104bc9190611c15565b6104fb576040517f08c379a00000000000000000000000000000000000000000000000000000000081526004016104f290612116565b60405180910390fd5b6040518061012001604052803373ffffffffffffffffffffffffffffffffffffffff1681526020018873ffffffffffffffffffffffffffffffffffffffff1681526020018573ffffffffffffffffffffffffffffffffffffffff1681526020018481526020018781526020018681526020016000151581526020016000151581526020016000801b81525060008084815260200190815260200160002060008201518160000160006101000a81548173ffffffffffffffffffffffffffffffffffffffff021916908373ffffffffffffffffffffffffffffffffffffffff16021790555060208201518160010160006101000a81548173ffffffffffffffffffffffffffffffffffffffff021916908373ffffffffffffffffffffffffffffffffffffffff16021790555060408201518160020160006101000a81548173ffffffffffffffffffffffffffffffffffffffff021916908373ffffffffffffffffffffffffffffffffffffffff160217905550606082015181600301556080820151816004015560a0820151816005015560c08201518160060160006101000a81548160ff02191690831515021790555060e08201518160060160016101000a81548160ff02191690831515021790555061010082015181600701559050508673ffffffffffffffffffffffffffffffffffffffff163373ffffffffffffffffffffffffffffffffffffffff16837fa2a72d0528ccc829345e59386d5d35f088e634e3f387a029c08067fa727c654687878b4260405161073d9493929190612059565b60405180910390a45095945050505050565b6107a1600073ffffffffffffffffffffffffffffffffffffffff168273ffffffffffffffffffffffffffffffffffffffff16141560405180606001604052806029815260200161240060299139611824565b60405180604001604052808273ffffffffffffffffffffffffffffffffffffffff16815260200160011515815250600160008373ffffffffffffffffffffffffffffffffffffffff1673ffffffffffffffffffffffffffffffffffffffff16815260200190815260200160002060008201518160000160006101000a81548173ffffffffffffffffffffffffffffffffffffffff021916908373ffffffffffffffffffffffffffffffffffffffff16021790555060208201518160000160146101000a81548160ff02191690831515021790555090505050565b60006108c46108898361186d565b6040518060400160405280601c81526020017f7472616e73616374696f6e496420646f6573206e6f7420657869737400000000815250611824565b6109663373ffffffffffffffffffffffffffffffffffffffff1660008085815260200190815260200160002060000160009054906101000a900473ffffffffffffffffffffffffffffffffffffffff1673ffffffffffffffffffffffffffffffffffffffff16146040518060400160405280601681526020017f726566756e6461626c653a206e6f742073656e64657200000000000000000000815250611824565b6109ce6000151560008085815260200190815260200160002060060160019054906101000a900460ff161515146040518060400160405280601c81526020017f726566756e6461626c653a20616c726561647920726566756e64656400000000815250611824565b610a366000151560008085815260200190815260200160002060060160009054906101000a900460ff161515146040518060400160405280601d81526020017f726566756e6461626c653a20616c72656164792077697468647261776e000000815250611824565b6000806000848152602001908152602001600020905060018160060160016101000a81548160ff0219169083151502179055508060020160009054906101000a900473ffffffffffffffffffffffffffffffffffffffff1673ffffffffffffffffffffffffffffffffffffffff1663a9059cbb8260000160009054906101000a900473ffffffffffffffffffffffffffffffffffffffff1683600301546040518363ffffffff1660e01b8152600401610af0929190612030565b602060405180830381600087803b158015610b0a57600080fd5b505af1158015610b1e573d6000803e3d6000fd5b505050506040513d601f19601f82011682018060405250810190610b429190611c15565b610b81576040517f08c379a0000000000000000000000000000000000000000000000000000000008152600401610b7890612116565b60405180910390fd5b827f7b932d7c3c50d56f3e342fca080984c95d87d5611ec3487235c1854056cc8eb460405160405180910390a26001915050919050565b6000610c01610bc68461186d565b6040518060400160405280601c81526020017f7472616e73616374696f6e496420646f6573206e6f7420657869737400000000815250611824565b610cc5600283604051602001610c179190611f11565b604051602081830303815290604052604051610c339190611f2c565b602060405180830381855afa158015610c50573d6000803e3d6000fd5b5050506040513d601f19601f82011682018060405250810190610c739190611cbb565b60008086815260200190815260200160002060040154146040518060400160405280601c81526020017f686173686c6f636b206861736820646f6573206e6f74206d6174636800000000815250611824565b610d2d6000151560008086815260200190815260200160002060060160009054906101000a900460ff161515146040518060400160405280601f81526020017f776974686472617761626c653a20616c72656164792077697468647261776e00815250611824565b610d664260008086815260200190815260200160002060050154116040518060600160405280603181526020016124ca60319139611824565b6000806000858152602001908152602001600020905082816007018190555060018160060160006101000a81548160ff0219169083151502179055508060020160009054906101000a900473ffffffffffffffffffffffffffffffffffffffff1673ffffffffffffffffffffffffffffffffffffffff1663a9059cbb86886040518363ffffffff1660e01b8152600401610e01929190612030565b602060405180830381600087803b158015610e1b57600080fd5b505af1158015610e2f573d6000803e3d6000fd5b505050506040513d601f19601f82011682018060405250810190610e539190611c15565b610e92576040517f08c379a0000000000000000000000000000000000000000000000000000000008152600401610e8990612116565b60405180910390fd5b837fccc078c3cc52c3238bfb3152392fb494a9394ecab9842bb9c46395dc84ad29c660405160405180910390a26001915050949350505050565b6000610f15610eda8361186d565b6040518060400160405280601c81526020017f7472616e73616374696f6e496420646f6573206e6f7420657869737400000000815250611824565b610fb73373ffffffffffffffffffffffffffffffffffffffff1660008085815260200190815260200160002060000160009054906101000a900473ffffffffffffffffffffffffffffffffffffffff1673ffffffffffffffffffffffffffffffffffffffff16146040518060400160405280601681526020017f726566756e6461626c653a206e6f742073656e64657200000000000000000000815250611824565b61101f6000151560008085815260200190815260200160002060060160019054906101000a900460ff161515146040518060400160405280601c81526020017f726566756e6461626c653a20616c726561647920726566756e64656400000000815250611824565b6110876000151560008085815260200190815260200160002060060160009054906101000a900460ff161515146040518060400160405280601d81526020017f726566756e6461626c653a20616c72656164792077697468647261776e000000815250611824565b6110c14260008085815260200190815260200160002060050154111560405180606001604052806023815260200161245660239139611824565b6000806000848152602001908152602001600020905060018160060160016101000a81548160ff0219169083151502179055508060020160009054906101000a900473ffffffffffffffffffffffffffffffffffffffff1673ffffffffffffffffffffffffffffffffffffffff1663a9059cbb8260000160009054906101000a900473ffffffffffffffffffffffffffffffffffffffff1683600301546040518363ffffffff1660e01b815260040161117b929190612030565b602060405180830381600087803b15801561119557600080fd5b505af11580156111a9573d6000803e3d6000fd5b505050506040513d601f19601f820116820180604052508101906111cd9190611c15565b61120c576040517f08c379a000000000000000000000000000000000000000000000000000000000815260040161120390612116565b60405180910390fd5b827f7b932d7c3c50d56f3e342fca080984c95d87d5611ec3487235c1854056cc8eb460405160405180910390a26001915050919050565b6112b4600160008573ffffffffffffffffffffffffffffffffffffffff1673ffffffffffffffffffffffffffffffffffffffff16815260200190815260200160002060000160149054906101000a900460ff1660405180606001604052806030815260200161249a60309139611824565b6000806000848152602001908152602001600020905081816007018190555060018160060160006101000a81548160ff02191690831515021790555050505050565b8273ffffffffffffffffffffffffffffffffffffffff1663a9059cbb83836040518363ffffffff1660e01b8152600401611331929190612030565b602060405180830381600087803b15801561134b57600080fd5b505af115801561135f573d6000803e3d6000fd5b505050506040513d601f19601f820116820180604052508101906113839190611c15565b6113c2576040517f08c379a00000000000000000000000000000000000000000000000000000000081526004016113b990612116565b60405180910390fd5b505050565b611438600160008973ffffffffffffffffffffffffffffffffffffffff1673ffffffffffffffffffffffffffffffffffffffff16815260200190815260200160002060000160149054906101000a900460ff166040518060600160405280602d8152602001612429602d9139611824565b6040518061012001604052803373ffffffffffffffffffffffffffffffffffffffff1681526020018673ffffffffffffffffffffffffffffffffffffffff1681526020018373ffffffffffffffffffffffffffffffffffffffff1681526020018281526020018581526020018481526020016000151581526020016000151581526020016000801b81525060008088815260200190815260200160002060008201518160000160006101000a81548173ffffffffffffffffffffffffffffffffffffffff021916908373ffffffffffffffffffffffffffffffffffffffff16021790555060208201518160010160006101000a81548173ffffffffffffffffffffffffffffffffffffffff021916908373ffffffffffffffffffffffffffffffffffffffff16021790555060408201518160020160006101000a81548173ffffffffffffffffffffffffffffffffffffffff021916908373ffffffffffffffffffffffffffffffffffffffff160217905550606082015181600301556080820151816004015560a0820151816005015560c08201518160060160006101000a81548160ff02191690831515021790555060e08201518160060160016101000a81548160ff021916908315150217905550610100820151816007015590505050505050505050565b8373ffffffffffffffffffffffffffffffffffffffff166323b872dd8484846040518463ffffffff1660e01b815260040161165c93929190611ff9565b602060405180830381600087803b15801561167657600080fd5b505af115801561168a573d6000803e3d6000fd5b505050506040513d601f19601f820116820180604052508101906116ae9190611c15565b6116ed576040517f08c379a00000000000000000000000000000000000000000000000000000000081526004016116e490612116565b60405180910390fd5b50505050565b600080600080600080600080600080151561170d8b61186d565b151514156117465760008060008060008060008060008460001b94508060001b9050985098509850985098509850985098509850611817565b60008060008c815260200190815260200160002090508060000160009054906101000a900473ffffffffffffffffffffffffffffffffffffffff168160010160009054906101000a900473ffffffffffffffffffffffffffffffffffffffff168260020160009054906101000a900473ffffffffffffffffffffffffffffffffffffffff168360030154846004015485600501548660060160009054906101000a900460ff168760060160019054906101000a900460ff168860070154995099509950995099509950995099509950505b9193959799909294969850565b600015158215151415611869577f560da9d4a39e8b8b206d502334ec642be7774eaaf28dce67f25da29a45da89ec8160405161186091906120d4565b60405180910390a15b5050565b60008073ffffffffffffffffffffffffffffffffffffffff1660008084815260200190815260200160002060000160009054906101000a900473ffffffffffffffffffffffffffffffffffffffff1673ffffffffffffffffffffffffffffffffffffffff1614159050919050565b60006118ee6118e98461215b565b612136565b90508281526020810184848401111561190657600080fd5b611911848285612210565b509392505050565b60008135905061192881612380565b92915050565b60008135905061193d81612397565b92915050565b60008151905061195281612397565b92915050565b600081359050611967816123ae565b92915050565b60008151905061197c816123ae565b92915050565b600082601f83011261199357600080fd5b81356119a38482602086016118db565b91505092915050565b6000813590506119bb816123c5565b92915050565b6000815190506119d0816123c5565b92915050565b6000602082840312156119e857600080fd5b60006119f684828501611919565b91505092915050565b60008060008060808587031215611a1557600080fd5b6000611a2387828801611919565b9450506020611a3487828801611919565b9350506040611a4587828801611919565b9250506060611a56878288016119ac565b91505092959194509250565b600080600060608486031215611a7757600080fd5b6000611a8586828701611919565b9350506020611a9686828701611919565b9250506040611aa7868287016119ac565b9150509250925092565b600080600080600080600060e0888a031215611acc57600080fd5b6000611ada8a828b01611919565b9750506020611aeb8a828b01611958565b9650506040611afc8a828b01611919565b9550506060611b0d8a828b01611958565b9450506080611b1e8a828b016119ac565b93505060a0611b2f8a828b01611919565b92505060c0611b408a828b016119ac565b91505092959891949750929550565b600080600060608486031215611b6457600080fd5b6000611b7286828701611919565b9350506020611b8386828701611958565b9250506040611b9486828701611958565b9150509250925092565b600080600080600060a08688031215611bb657600080fd5b6000611bc488828901611919565b9550506020611bd588828901611958565b9450506040611be6888289016119ac565b9350506060611bf788828901611919565b9250506080611c08888289016119ac565b9150509295509295909350565b600060208284031215611c2757600080fd5b6000611c3584828501611943565b91505092915050565b60008060408385031215611c5157600080fd5b6000611c5f8582860161192e565b925050602083013567ffffffffffffffff811115611c7c57600080fd5b611c8885828601611982565b9150509250929050565b600060208284031215611ca457600080fd5b6000611cb284828501611958565b91505092915050565b600060208284031215611ccd57600080fd5b6000611cdb8482850161196d565b91505092915050565b600060208284031215611cf657600080fd5b6000611d04848285016119c1565b91505092915050565b60008060008060808587031215611d2357600080fd5b6000611d31878288016119ac565b9450506020611d4287828801611919565b9350506040611d5387828801611958565b9250506060611d6487828801611958565b91505092959194509250565b611d79816121be565b82525050565b611d90611d8b826121be565b612283565b82525050565b611d9f816121d0565b82525050565b611dae816121dc565b82525050565b611dc5611dc0826121dc565b612295565b82525050565b6000611dd68261218c565b611de081856121a2565b9350611df081856020860161221f565b80840191505092915050565b6000611e0782612197565b611e1181856121ad565b9350611e2181856020860161221f565b611e2a816122ea565b840191505092915050565b6000611e426017836121ad565b9150611e4d82612308565b602082019050919050565b6000611e656022836121ad565b9150611e7082612331565b604082019050919050565b611e8481612206565b82525050565b611e9b611e9682612206565b6122b1565b82525050565b6000611ead8289611d7f565b601482019150611ebd8288611d7f565b601482019150611ecd8287611d7f565b601482019150611edd8286611e8a565b602082019150611eed8285611db4565b602082019150611efd8284611e8a565b602082019150819050979650505050505050565b6000611f1d8284611db4565b60208201915081905092915050565b6000611f388284611dcb565b915081905092915050565b6000604082019050611f586000830185611d70565b611f656020830184611d70565b9392505050565b600061012082019050611f82600083018c611d70565b611f8f602083018b611d70565b611f9c604083018a611d70565b611fa96060830189611e7b565b611fb66080830188611da5565b611fc360a0830187611e7b565b611fd060c0830186611d96565b611fdd60e0830185611d96565b611feb610100830184611da5565b9a9950505050505050505050565b600060608201905061200e6000830186611d70565b61201b6020830185611d70565b6120286040830184611e7b565b949350505050565b60006040820190506120456000830185611d70565b6120526020830184611e7b565b9392505050565b600060808201905061206e6000830187611d70565b61207b6020830186611e7b565b6120886040830185611da5565b6120956060830184611e7b565b95945050505050565b60006020820190506120b36000830184611d96565b92915050565b60006020820190506120ce6000830184611da5565b92915050565b600060208201905081810360008301526120ee8184611dfc565b905092915050565b6000602082019050818103600083015261210f81611e35565b9050919050565b6000602082019050818103600083015261212f81611e58565b9050919050565b6000612140612151565b905061214c8282612252565b919050565b6000604051905090565b600067ffffffffffffffff821115612176576121756122bb565b5b61217f826122ea565b9050602081019050919050565b600081519050919050565b600081519050919050565b600081905092915050565b600082825260208201905092915050565b60006121c9826121e6565b9050919050565b60008115159050919050565b6000819050919050565b600073ffffffffffffffffffffffffffffffffffffffff82169050919050565b6000819050919050565b82818337600083830152505050565b60005b8381101561223d578082015181840152602081019050612222565b8381111561224c576000848401525b50505050565b61225b826122ea565b810181811067ffffffffffffffff8211171561227a576122796122bb565b5b80604052505050565b600061228e8261229f565b9050919050565b6000819050919050565b60006122aa826122fb565b9050919050565b6000819050919050565b7f4e487b7100000000000000000000000000000000000000000000000000000000600052604160045260246000fd5b6000601f19601f8301169050919050565b60008160601b9050919050565b7f436f6e747261637420616c726561647920657869737473000000000000000000600082015250565b7f7472616e7366657246726f6d2073656e64657220746f2074686973206661696c60008201527f6564000000000000000000000000000000000000000000000000000000000000602082015250565b612389816121be565b811461239457600080fd5b50565b6123a0816121d0565b81146123ab57600080fd5b50565b6123b7816121dc565b81146123c257600080fd5b50565b6123ce81612206565b81146123d957600080fd5b5056fe74696d656c6f636b2074696d65206d75737420626520696e2074686520667574757265636f6e74726163742061646472657373206d757374206e6f74206265207a65726f206164647265737341646420636f727373436861696e206461746120636f6e74726163742061646472657373206e6f742065786974726566756e6461626c653a2074696d656c6f636b206e6f742079657420706173736564746f6b656e20616c6c6f77616e6365206d757374206265203e3d20616d6f756e7455706461746520636f727373436861696e206461746120636f6e74726163742061646472657373206e6f742065786974776974686472617761626c653a2074696d656c6f636b2074696d65206d75737420626520696e2074686520667574757265a2646970667358221220203b547f989cdb208115ff9242d44cdbc4d622591e4356fc5aad7745173054b064736f6c63430008040033",
          "opcodes": "PUSH1 0x80 PUSH1 0x40 MSTORE CALLVALUE DUP1 ISZERO PUSH2 0x10 JUMPI PUSH1 0x0 DUP1 REVERT JUMPDEST POP PUSH2 0x2530 DUP1 PUSH2 0x20 PUSH1 0x0 CODECOPY PUSH1 0x0 RETURN INVALID PUSH1 0x80 PUSH1 0x40 MSTORE CALLVALUE DUP1 ISZERO PUSH2 0x10 JUMPI PUSH1 0x0 DUP1 REVERT JUMPDEST POP PUSH1 0x4 CALLDATASIZE LT PUSH2 0xA9 JUMPI PUSH1 0x0 CALLDATALOAD PUSH1 0xE0 SHR DUP1 PUSH4 0x64FF3004 GT PUSH2 0x71 JUMPI DUP1 PUSH4 0x64FF3004 EQ PUSH2 0x18A JUMPI DUP1 PUSH4 0x6D0C27A8 EQ PUSH2 0x1A6 JUMPI DUP1 PUSH4 0xCBBD8A1D EQ PUSH2 0x1C2 JUMPI DUP1 PUSH4 0xD9D1CA47 EQ PUSH2 0x1DE JUMPI DUP1 PUSH4 0xE16C7D98 EQ PUSH2 0x1FA JUMPI DUP1 PUSH4 0xF46611F9 EQ PUSH2 0x232 JUMPI PUSH2 0xA9 JUMP JUMPDEST DUP1 PUSH4 0x159A962C EQ PUSH2 0xAE JUMPI DUP1 PUSH4 0x22A5DDE4 EQ PUSH2 0xDE JUMPI DUP1 PUSH4 0x40D1CE73 EQ PUSH2 0xFA JUMPI DUP1 PUSH4 0x449B0395 EQ PUSH2 0x12A JUMPI DUP1 PUSH4 0x4CC28A19 EQ PUSH2 0x15A JUMPI JUMPDEST PUSH1 0x0 DUP1 REVERT JUMPDEST PUSH2 0xC8 PUSH1 0x4 DUP1 CALLDATASIZE SUB DUP2 ADD SWAP1 PUSH2 0xC3 SWAP2 SWAP1 PUSH2 0x1B9E JUMP JUMPDEST PUSH2 0x24E JUMP JUMPDEST PUSH1 0x40 MLOAD PUSH2 0xD5 SWAP2 SWAP1 PUSH2 0x20B9 JUMP JUMPDEST PUSH1 0x40 MLOAD DUP1 SWAP2 SUB SWAP1 RETURN JUMPDEST PUSH2 0xF8 PUSH1 0x4 DUP1 CALLDATASIZE SUB DUP2 ADD SWAP1 PUSH2 0xF3 SWAP2 SWAP1 PUSH2 0x19D6 JUMP JUMPDEST PUSH2 0x74F JUMP JUMPDEST STOP JUMPDEST PUSH2 0x114 PUSH1 0x4 DUP1 CALLDATASIZE SUB DUP2 ADD SWAP1 PUSH2 0x10F SWAP2 SWAP1 PUSH2 0x1C92 JUMP JUMPDEST PUSH2 0x87B JUMP JUMPDEST PUSH1 0x40 MLOAD PUSH2 0x121 SWAP2 SWAP1 PUSH2 0x209E JUMP JUMPDEST PUSH1 0x40 MLOAD DUP1 SWAP2 SUB SWAP1 RETURN JUMPDEST PUSH2 0x144 PUSH1 0x4 DUP1 CALLDATASIZE SUB DUP2 ADD SWAP1 PUSH2 0x13F SWAP2 SWAP1 PUSH2 0x1D0D JUMP JUMPDEST PUSH2 0xBB8 JUMP JUMPDEST PUSH1 0x40 MLOAD PUSH2 0x151 SWAP2 SWAP1 PUSH2 0x209E JUMP JUMPDEST PUSH1 0x40 MLOAD DUP1 SWAP2 SUB SWAP1 RETURN JUMPDEST PUSH2 0x174 PUSH1 0x4 DUP1 CALLDATASIZE SUB DUP2 ADD SWAP1 PUSH2 0x16F SWAP2 SWAP1 PUSH2 0x1C92 JUMP JUMPDEST PUSH2 0xECC JUMP JUMPDEST PUSH1 0x40 MLOAD PUSH2 0x181 SWAP2 SWAP1 PUSH2 0x209E JUMP JUMPDEST PUSH1 0x40 MLOAD DUP1 SWAP2 SUB SWAP1 RETURN JUMPDEST PUSH2 0x1A4 PUSH1 0x4 DUP1 CALLDATASIZE SUB DUP2 ADD SWAP1 PUSH2 0x19F SWAP2 SWAP1 PUSH2 0x1B4F JUMP JUMPDEST PUSH2 0x1243 JUMP JUMPDEST STOP JUMPDEST PUSH2 0x1C0 PUSH1 0x4 DUP1 CALLDATASIZE SUB DUP2 ADD SWAP1 PUSH2 0x1BB SWAP2 SWAP1 PUSH2 0x1A62 JUMP JUMPDEST PUSH2 0x12F6 JUMP JUMPDEST STOP JUMPDEST PUSH2 0x1DC PUSH1 0x4 DUP1 CALLDATASIZE SUB DUP2 ADD SWAP1 PUSH2 0x1D7 SWAP2 SWAP1 PUSH2 0x1AB1 JUMP JUMPDEST PUSH2 0x13C7 JUMP JUMPDEST STOP JUMPDEST PUSH2 0x1F8 PUSH1 0x4 DUP1 CALLDATASIZE SUB DUP2 ADD SWAP1 PUSH2 0x1F3 SWAP2 SWAP1 PUSH2 0x19FF JUMP JUMPDEST PUSH2 0x161F JUMP JUMPDEST STOP JUMPDEST PUSH2 0x214 PUSH1 0x4 DUP1 CALLDATASIZE SUB DUP2 ADD SWAP1 PUSH2 0x20F SWAP2 SWAP1 PUSH2 0x1C92 JUMP JUMPDEST PUSH2 0x16F3 JUMP JUMPDEST PUSH1 0x40 MLOAD PUSH2 0x229 SWAP10 SWAP9 SWAP8 SWAP7 SWAP6 SWAP5 SWAP4 SWAP3 SWAP2 SWAP1 PUSH2 0x1F6C JUMP JUMPDEST PUSH1 0x40 MLOAD DUP1 SWAP2 SUB SWAP1 RETURN JUMPDEST PUSH2 0x24C PUSH1 0x4 DUP1 CALLDATASIZE SUB DUP2 ADD SWAP1 PUSH2 0x247 SWAP2 SWAP1 PUSH2 0x1C3E JUMP JUMPDEST PUSH2 0x1824 JUMP JUMPDEST STOP JUMPDEST PUSH1 0x0 DUP1 TIMESTAMP SWAP1 POP PUSH2 0x296 PUSH1 0x0 DUP5 GT PUSH1 0x40 MLOAD DUP1 PUSH1 0x40 ADD PUSH1 0x40 MSTORE DUP1 PUSH1 0x18 DUP2 MSTORE PUSH1 0x20 ADD PUSH32 0x746F6B656E20616D6F756E74206D757374206265203E20300000000000000000 DUP2 MSTORE POP PUSH2 0x1824 JUMP JUMPDEST PUSH2 0x345 DUP4 DUP6 PUSH20 0xFFFFFFFFFFFFFFFFFFFFFFFFFFFFFFFFFFFFFFFF AND PUSH4 0xDD62ED3E CALLER ADDRESS PUSH1 0x40 MLOAD DUP4 PUSH4 0xFFFFFFFF AND PUSH1 0xE0 SHL DUP2 MSTORE PUSH1 0x4 ADD PUSH2 0x2D5 SWAP3 SWAP2 SWAP1 PUSH2 0x1F43 JUMP JUMPDEST PUSH1 0x20 PUSH1 0x40 MLOAD DUP1 DUP4 SUB DUP2 DUP7 DUP1 EXTCODESIZE ISZERO DUP1 ISZERO PUSH2 0x2ED JUMPI PUSH1 0x0 DUP1 REVERT JUMPDEST POP GAS STATICCALL ISZERO DUP1 ISZERO PUSH2 0x301 JUMPI RETURNDATASIZE PUSH1 0x0 DUP1 RETURNDATACOPY RETURNDATASIZE PUSH1 0x0 REVERT JUMPDEST POP POP POP POP PUSH1 0x40 MLOAD RETURNDATASIZE PUSH1 0x1F NOT PUSH1 0x1F DUP3 ADD AND DUP3 ADD DUP1 PUSH1 0x40 MSTORE POP DUP2 ADD SWAP1 PUSH2 0x325 SWAP2 SWAP1 PUSH2 0x1CE4 JUMP JUMPDEST LT ISZERO PUSH1 0x40 MLOAD DUP1 PUSH1 0x60 ADD PUSH1 0x40 MSTORE DUP1 PUSH1 0x21 DUP2 MSTORE PUSH1 0x20 ADD PUSH2 0x2479 PUSH1 0x21 SWAP2 CODECOPY PUSH2 0x1824 JUMP JUMPDEST PUSH2 0x369 DUP2 DUP7 GT PUSH1 0x40 MLOAD DUP1 PUSH1 0x60 ADD PUSH1 0x40 MSTORE DUP1 PUSH1 0x23 DUP2 MSTORE PUSH1 0x20 ADD PUSH2 0x23DD PUSH1 0x23 SWAP2 CODECOPY PUSH2 0x1824 JUMP JUMPDEST PUSH1 0x2 CALLER DUP9 DUP7 DUP7 DUP11 DUP11 PUSH1 0x40 MLOAD PUSH1 0x20 ADD PUSH2 0x386 SWAP7 SWAP6 SWAP5 SWAP4 SWAP3 SWAP2 SWAP1 PUSH2 0x1EA1 JUMP JUMPDEST PUSH1 0x40 MLOAD PUSH1 0x20 DUP2 DUP4 SUB SUB DUP2 MSTORE SWAP1 PUSH1 0x40 MSTORE PUSH1 0x40 MLOAD PUSH2 0x3A2 SWAP2 SWAP1 PUSH2 0x1F2C JUMP JUMPDEST PUSH1 0x20 PUSH1 0x40 MLOAD DUP1 DUP4 SUB DUP2 DUP6 GAS STATICCALL ISZERO DUP1 ISZERO PUSH2 0x3BF JUMPI RETURNDATASIZE PUSH1 0x0 DUP1 RETURNDATACOPY RETURNDATASIZE PUSH1 0x0 REVERT JUMPDEST POP POP POP PUSH1 0x40 MLOAD RETURNDATASIZE PUSH1 0x1F NOT PUSH1 0x1F DUP3 ADD AND DUP3 ADD DUP1 PUSH1 0x40 MSTORE POP DUP2 ADD SWAP1 PUSH2 0x3E2 SWAP2 SWAP1 PUSH2 0x1CBB JUMP JUMPDEST SWAP2 POP PUSH2 0x3ED DUP3 PUSH2 0x186D JUMP JUMPDEST ISZERO PUSH2 0x42D JUMPI PUSH1 0x40 MLOAD PUSH32 0x8C379A000000000000000000000000000000000000000000000000000000000 DUP2 MSTORE PUSH1 0x4 ADD PUSH2 0x424 SWAP1 PUSH2 0x20F6 JUMP JUMPDEST PUSH1 0x40 MLOAD DUP1 SWAP2 SUB SWAP1 REVERT JUMPDEST DUP4 PUSH20 0xFFFFFFFFFFFFFFFFFFFFFFFFFFFFFFFFFFFFFFFF AND PUSH4 0x23B872DD CALLER DUP10 DUP7 PUSH1 0x40 MLOAD DUP5 PUSH4 0xFFFFFFFF AND PUSH1 0xE0 SHL DUP2 MSTORE PUSH1 0x4 ADD PUSH2 0x46A SWAP4 SWAP3 SWAP2 SWAP1 PUSH2 0x1FF9 JUMP JUMPDEST PUSH1 0x20 PUSH1 0x40 MLOAD DUP1 DUP4 SUB DUP2 PUSH1 0x0 DUP8 DUP1 EXTCODESIZE ISZERO DUP1 ISZERO PUSH2 0x484 JUMPI PUSH1 0x0 DUP1 REVERT JUMPDEST POP GAS CALL ISZERO DUP1 ISZERO PUSH2 0x498 JUMPI RETURNDATASIZE PUSH1 0x0 DUP1 RETURNDATACOPY RETURNDATASIZE PUSH1 0x0 REVERT JUMPDEST POP POP POP POP PUSH1 0x40 MLOAD RETURNDATASIZE PUSH1 0x1F NOT PUSH1 0x1F DUP3 ADD AND DUP3 ADD DUP1 PUSH1 0x40 MSTORE POP DUP2 ADD SWAP1 PUSH2 0x4BC SWAP2 SWAP1 PUSH2 0x1C15 JUMP JUMPDEST PUSH2 0x4FB JUMPI PUSH1 0x40 MLOAD PUSH32 0x8C379A000000000000000000000000000000000000000000000000000000000 DUP2 MSTORE PUSH1 0x4 ADD PUSH2 0x4F2 SWAP1 PUSH2 0x2116 JUMP JUMPDEST PUSH1 0x40 MLOAD DUP1 SWAP2 SUB SWAP1 REVERT JUMPDEST PUSH1 0x40 MLOAD DUP1 PUSH2 0x120 ADD PUSH1 0x40 MSTORE DUP1 CALLER PUSH20 0xFFFFFFFFFFFFFFFFFFFFFFFFFFFFFFFFFFFFFFFF AND DUP2 MSTORE PUSH1 0x20 ADD DUP9 PUSH20 0xFFFFFFFFFFFFFFFFFFFFFFFFFFFFFFFFFFFFFFFF AND DUP2 MSTORE PUSH1 0x20 ADD DUP6 PUSH20 0xFFFFFFFFFFFFFFFFFFFFFFFFFFFFFFFFFFFFFFFF AND DUP2 MSTORE PUSH1 0x20 ADD DUP5 DUP2 MSTORE PUSH1 0x20 ADD DUP8 DUP2 MSTORE PUSH1 0x20 ADD DUP7 DUP2 MSTORE PUSH1 0x20 ADD PUSH1 0x0 ISZERO ISZERO DUP2 MSTORE PUSH1 0x20 ADD PUSH1 0x0 ISZERO ISZERO DUP2 MSTORE PUSH1 0x20 ADD PUSH1 0x0 DUP1 SHL DUP2 MSTORE POP PUSH1 0x0 DUP1 DUP5 DUP2 MSTORE PUSH1 0x20 ADD SWAP1 DUP2 MSTORE PUSH1 0x20 ADD PUSH1 0x0 KECCAK256 PUSH1 0x0 DUP3 ADD MLOAD DUP2 PUSH1 0x0 ADD PUSH1 0x0 PUSH2 0x100 EXP DUP2 SLOAD DUP2 PUSH20 0xFFFFFFFFFFFFFFFFFFFFFFFFFFFFFFFFFFFFFFFF MUL NOT AND SWAP1 DUP4 PUSH20 0xFFFFFFFFFFFFFFFFFFFFFFFFFFFFFFFFFFFFFFFF AND MUL OR SWAP1 SSTORE POP PUSH1 0x20 DUP3 ADD MLOAD DUP2 PUSH1 0x1 ADD PUSH1 0x0 PUSH2 0x100 EXP DUP2 SLOAD DUP2 PUSH20 0xFFFFFFFFFFFFFFFFFFFFFFFFFFFFFFFFFFFFFFFF MUL NOT AND SWAP1 DUP4 PUSH20 0xFFFFFFFFFFFFFFFFFFFFFFFFFFFFFFFFFFFFFFFF AND MUL OR SWAP1 SSTORE POP PUSH1 0x40 DUP3 ADD MLOAD DUP2 PUSH1 0x2 ADD PUSH1 0x0 PUSH2 0x100 EXP DUP2 SLOAD DUP2 PUSH20 0xFFFFFFFFFFFFFFFFFFFFFFFFFFFFFFFFFFFFFFFF MUL NOT AND SWAP1 DUP4 PUSH20 0xFFFFFFFFFFFFFFFFFFFFFFFFFFFFFFFFFFFFFFFF AND MUL OR SWAP1 SSTORE POP PUSH1 0x60 DUP3 ADD MLOAD DUP2 PUSH1 0x3 ADD SSTORE PUSH1 0x80 DUP3 ADD MLOAD DUP2 PUSH1 0x4 ADD SSTORE PUSH1 0xA0 DUP3 ADD MLOAD DUP2 PUSH1 0x5 ADD SSTORE PUSH1 0xC0 DUP3 ADD MLOAD DUP2 PUSH1 0x6 ADD PUSH1 0x0 PUSH2 0x100 EXP DUP2 SLOAD DUP2 PUSH1 0xFF MUL NOT AND SWAP1 DUP4 ISZERO ISZERO MUL OR SWAP1 SSTORE POP PUSH1 0xE0 DUP3 ADD MLOAD DUP2 PUSH1 0x6 ADD PUSH1 0x1 PUSH2 0x100 EXP DUP2 SLOAD DUP2 PUSH1 0xFF MUL NOT AND SWAP1 DUP4 ISZERO ISZERO MUL OR SWAP1 SSTORE POP PUSH2 0x100 DUP3 ADD MLOAD DUP2 PUSH1 0x7 ADD SSTORE SWAP1 POP POP DUP7 PUSH20 0xFFFFFFFFFFFFFFFFFFFFFFFFFFFFFFFFFFFFFFFF AND CALLER PUSH20 0xFFFFFFFFFFFFFFFFFFFFFFFFFFFFFFFFFFFFFFFF AND DUP4 PUSH32 0xA2A72D0528CCC829345E59386D5D35F088E634E3F387A029C08067FA727C6546 DUP8 DUP8 DUP12 TIMESTAMP PUSH1 0x40 MLOAD PUSH2 0x73D SWAP5 SWAP4 SWAP3 SWAP2 SWAP1 PUSH2 0x2059 JUMP JUMPDEST PUSH1 0x40 MLOAD DUP1 SWAP2 SUB SWAP1 LOG4 POP SWAP6 SWAP5 POP POP POP POP POP JUMP JUMPDEST PUSH2 0x7A1 PUSH1 0x0 PUSH20 0xFFFFFFFFFFFFFFFFFFFFFFFFFFFFFFFFFFFFFFFF AND DUP3 PUSH20 0xFFFFFFFFFFFFFFFFFFFFFFFFFFFFFFFFFFFFFFFF AND EQ ISZERO PUSH1 0x40 MLOAD DUP1 PUSH1 0x60 ADD PUSH1 0x40 MSTORE DUP1 PUSH1 0x29 DUP2 MSTORE PUSH1 0x20 ADD PUSH2 0x2400 PUSH1 0x29 SWAP2 CODECOPY PUSH2 0x1824 JUMP JUMPDEST PUSH1 0x40 MLOAD DUP1 PUSH1 0x40 ADD PUSH1 0x40 MSTORE DUP1 DUP3 PUSH20 0xFFFFFFFFFFFFFFFFFFFFFFFFFFFFFFFFFFFFFFFF AND DUP2 MSTORE PUSH1 0x20 ADD PUSH1 0x1 ISZERO ISZERO DUP2 MSTORE POP PUSH1 0x1 PUSH1 0x0 DUP4 PUSH20 0xFFFFFFFFFFFFFFFFFFFFFFFFFFFFFFFFFFFFFFFF AND PUSH20 0xFFFFFFFFFFFFFFFFFFFFFFFFFFFFFFFFFFFFFFFF AND DUP2 MSTORE PUSH1 0x20 ADD SWAP1 DUP2 MSTORE PUSH1 0x20 ADD PUSH1 0x0 KECCAK256 PUSH1 0x0 DUP3 ADD MLOAD DUP2 PUSH1 0x0 ADD PUSH1 0x0 PUSH2 0x100 EXP DUP2 SLOAD DUP2 PUSH20 0xFFFFFFFFFFFFFFFFFFFFFFFFFFFFFFFFFFFFFFFF MUL NOT AND SWAP1 DUP4 PUSH20 0xFFFFFFFFFFFFFFFFFFFFFFFFFFFFFFFFFFFFFFFF AND MUL OR SWAP1 SSTORE POP PUSH1 0x20 DUP3 ADD MLOAD DUP2 PUSH1 0x0 ADD PUSH1 0x14 PUSH2 0x100 EXP DUP2 SLOAD DUP2 PUSH1 0xFF MUL NOT AND SWAP1 DUP4 ISZERO ISZERO MUL OR SWAP1 SSTORE POP SWAP1 POP POP POP JUMP JUMPDEST PUSH1 0x0 PUSH2 0x8C4 PUSH2 0x889 DUP4 PUSH2 0x186D JUMP JUMPDEST PUSH1 0x40 MLOAD DUP1 PUSH1 0x40 ADD PUSH1 0x40 MSTORE DUP1 PUSH1 0x1C DUP2 MSTORE PUSH1 0x20 ADD PUSH32 0x7472616E73616374696F6E496420646F6573206E6F7420657869737400000000 DUP2 MSTORE POP PUSH2 0x1824 JUMP JUMPDEST PUSH2 0x966 CALLER PUSH20 0xFFFFFFFFFFFFFFFFFFFFFFFFFFFFFFFFFFFFFFFF AND PUSH1 0x0 DUP1 DUP6 DUP2 MSTORE PUSH1 0x20 ADD SWAP1 DUP2 MSTORE PUSH1 0x20 ADD PUSH1 0x0 KECCAK256 PUSH1 0x0 ADD PUSH1 0x0 SWAP1 SLOAD SWAP1 PUSH2 0x100 EXP SWAP1 DIV PUSH20 0xFFFFFFFFFFFFFFFFFFFFFFFFFFFFFFFFFFFFFFFF AND PUSH20 0xFFFFFFFFFFFFFFFFFFFFFFFFFFFFFFFFFFFFFFFF AND EQ PUSH1 0x40 MLOAD DUP1 PUSH1 0x40 ADD PUSH1 0x40 MSTORE DUP1 PUSH1 0x16 DUP2 MSTORE PUSH1 0x20 ADD PUSH32 0x726566756E6461626C653A206E6F742073656E64657200000000000000000000 DUP2 MSTORE POP PUSH2 0x1824 JUMP JUMPDEST PUSH2 0x9CE PUSH1 0x0 ISZERO ISZERO PUSH1 0x0 DUP1 DUP6 DUP2 MSTORE PUSH1 0x20 ADD SWAP1 DUP2 MSTORE PUSH1 0x20 ADD PUSH1 0x0 KECCAK256 PUSH1 0x6 ADD PUSH1 0x1 SWAP1 SLOAD SWAP1 PUSH2 0x100 EXP SWAP1 DIV PUSH1 0xFF AND ISZERO ISZERO EQ PUSH1 0x40 MLOAD DUP1 PUSH1 0x40 ADD PUSH1 0x40 MSTORE DUP1 PUSH1 0x1C DUP2 MSTORE PUSH1 0x20 ADD PUSH32 0x726566756E6461626C653A20616C726561647920726566756E64656400000000 DUP2 MSTORE POP PUSH2 0x1824 JUMP JUMPDEST PUSH2 0xA36 PUSH1 0x0 ISZERO ISZERO PUSH1 0x0 DUP1 DUP6 DUP2 MSTORE PUSH1 0x20 ADD SWAP1 DUP2 MSTORE PUSH1 0x20 ADD PUSH1 0x0 KECCAK256 PUSH1 0x6 ADD PUSH1 0x0 SWAP1 SLOAD SWAP1 PUSH2 0x100 EXP SWAP1 DIV PUSH1 0xFF AND ISZERO ISZERO EQ PUSH1 0x40 MLOAD DUP1 PUSH1 0x40 ADD PUSH1 0x40 MSTORE DUP1 PUSH1 0x1D DUP2 MSTORE PUSH1 0x20 ADD PUSH32 0x726566756E6461626C653A20616C72656164792077697468647261776E000000 DUP2 MSTORE POP PUSH2 0x1824 JUMP JUMPDEST PUSH1 0x0 DUP1 PUSH1 0x0 DUP5 DUP2 MSTORE PUSH1 0x20 ADD SWAP1 DUP2 MSTORE PUSH1 0x20 ADD PUSH1 0x0 KECCAK256 SWAP1 POP PUSH1 0x1 DUP2 PUSH1 0x6 ADD PUSH1 0x1 PUSH2 0x100 EXP DUP2 SLOAD DUP2 PUSH1 0xFF MUL NOT AND SWAP1 DUP4 ISZERO ISZERO MUL OR SWAP1 SSTORE POP DUP1 PUSH1 0x2 ADD PUSH1 0x0 SWAP1 SLOAD SWAP1 PUSH2 0x100 EXP SWAP1 DIV PUSH20 0xFFFFFFFFFFFFFFFFFFFFFFFFFFFFFFFFFFFFFFFF AND PUSH20 0xFFFFFFFFFFFFFFFFFFFFFFFFFFFFFFFFFFFFFFFF AND PUSH4 0xA9059CBB DUP3 PUSH1 0x0 ADD PUSH1 0x0 SWAP1 SLOAD SWAP1 PUSH2 0x100 EXP SWAP1 DIV PUSH20 0xFFFFFFFFFFFFFFFFFFFFFFFFFFFFFFFFFFFFFFFF AND DUP4 PUSH1 0x3 ADD SLOAD PUSH1 0x40 MLOAD DUP4 PUSH4 0xFFFFFFFF AND PUSH1 0xE0 SHL DUP2 MSTORE PUSH1 0x4 ADD PUSH2 0xAF0 SWAP3 SWAP2 SWAP1 PUSH2 0x2030 JUMP JUMPDEST PUSH1 0x20 PUSH1 0x40 MLOAD DUP1 DUP4 SUB DUP2 PUSH1 0x0 DUP8 DUP1 EXTCODESIZE ISZERO DUP1 ISZERO PUSH2 0xB0A JUMPI PUSH1 0x0 DUP1 REVERT JUMPDEST POP GAS CALL ISZERO DUP1 ISZERO PUSH2 0xB1E JUMPI RETURNDATASIZE PUSH1 0x0 DUP1 RETURNDATACOPY RETURNDATASIZE PUSH1 0x0 REVERT JUMPDEST POP POP POP POP PUSH1 0x40 MLOAD RETURNDATASIZE PUSH1 0x1F NOT PUSH1 0x1F DUP3 ADD AND DUP3 ADD DUP1 PUSH1 0x40 MSTORE POP DUP2 ADD SWAP1 PUSH2 0xB42 SWAP2 SWAP1 PUSH2 0x1C15 JUMP JUMPDEST PUSH2 0xB81 JUMPI PUSH1 0x40 MLOAD PUSH32 0x8C379A000000000000000000000000000000000000000000000000000000000 DUP2 MSTORE PUSH1 0x4 ADD PUSH2 0xB78 SWAP1 PUSH2 0x2116 JUMP JUMPDEST PUSH1 0x40 MLOAD DUP1 SWAP2 SUB SWAP1 REVERT JUMPDEST DUP3 PUSH32 0x7B932D7C3C50D56F3E342FCA080984C95D87D5611EC3487235C1854056CC8EB4 PUSH1 0x40 MLOAD PUSH1 0x40 MLOAD DUP1 SWAP2 SUB SWAP1 LOG2 PUSH1 0x1 SWAP2 POP POP SWAP2 SWAP1 POP JUMP JUMPDEST PUSH1 0x0 PUSH2 0xC01 PUSH2 0xBC6 DUP5 PUSH2 0x186D JUMP JUMPDEST PUSH1 0x40 MLOAD DUP1 PUSH1 0x40 ADD PUSH1 0x40 MSTORE DUP1 PUSH1 0x1C DUP2 MSTORE PUSH1 0x20 ADD PUSH32 0x7472616E73616374696F6E496420646F6573206E6F7420657869737400000000 DUP2 MSTORE POP PUSH2 0x1824 JUMP JUMPDEST PUSH2 0xCC5 PUSH1 0x2 DUP4 PUSH1 0x40 MLOAD PUSH1 0x20 ADD PUSH2 0xC17 SWAP2 SWAP1 PUSH2 0x1F11 JUMP JUMPDEST PUSH1 0x40 MLOAD PUSH1 0x20 DUP2 DUP4 SUB SUB DUP2 MSTORE SWAP1 PUSH1 0x40 MSTORE PUSH1 0x40 MLOAD PUSH2 0xC33 SWAP2 SWAP1 PUSH2 0x1F2C JUMP JUMPDEST PUSH1 0x20 PUSH1 0x40 MLOAD DUP1 DUP4 SUB DUP2 DUP6 GAS STATICCALL ISZERO DUP1 ISZERO PUSH2 0xC50 JUMPI RETURNDATASIZE PUSH1 0x0 DUP1 RETURNDATACOPY RETURNDATASIZE PUSH1 0x0 REVERT JUMPDEST POP POP POP PUSH1 0x40 MLOAD RETURNDATASIZE PUSH1 0x1F NOT PUSH1 0x1F DUP3 ADD AND DUP3 ADD DUP1 PUSH1 0x40 MSTORE POP DUP2 ADD SWAP1 PUSH2 0xC73 SWAP2 SWAP1 PUSH2 0x1CBB JUMP JUMPDEST PUSH1 0x0 DUP1 DUP7 DUP2 MSTORE PUSH1 0x20 ADD SWAP1 DUP2 MSTORE PUSH1 0x20 ADD PUSH1 0x0 KECCAK256 PUSH1 0x4 ADD SLOAD EQ PUSH1 0x40 MLOAD DUP1 PUSH1 0x40 ADD PUSH1 0x40 MSTORE DUP1 PUSH1 0x1C DUP2 MSTORE PUSH1 0x20 ADD PUSH32 0x686173686C6F636B206861736820646F6573206E6F74206D6174636800000000 DUP2 MSTORE POP PUSH2 0x1824 JUMP JUMPDEST PUSH2 0xD2D PUSH1 0x0 ISZERO ISZERO PUSH1 0x0 DUP1 DUP7 DUP2 MSTORE PUSH1 0x20 ADD SWAP1 DUP2 MSTORE PUSH1 0x20 ADD PUSH1 0x0 KECCAK256 PUSH1 0x6 ADD PUSH1 0x0 SWAP1 SLOAD SWAP1 PUSH2 0x100 EXP SWAP1 DIV PUSH1 0xFF AND ISZERO ISZERO EQ PUSH1 0x40 MLOAD DUP1 PUSH1 0x40 ADD PUSH1 0x40 MSTORE DUP1 PUSH1 0x1F DUP2 MSTORE PUSH1 0x20 ADD PUSH32 0x776974686472617761626C653A20616C72656164792077697468647261776E00 DUP2 MSTORE POP PUSH2 0x1824 JUMP JUMPDEST PUSH2 0xD66 TIMESTAMP PUSH1 0x0 DUP1 DUP7 DUP2 MSTORE PUSH1 0x20 ADD SWAP1 DUP2 MSTORE PUSH1 0x20 ADD PUSH1 0x0 KECCAK256 PUSH1 0x5 ADD SLOAD GT PUSH1 0x40 MLOAD DUP1 PUSH1 0x60 ADD PUSH1 0x40 MSTORE DUP1 PUSH1 0x31 DUP2 MSTORE PUSH1 0x20 ADD PUSH2 0x24CA PUSH1 0x31 SWAP2 CODECOPY PUSH2 0x1824 JUMP JUMPDEST PUSH1 0x0 DUP1 PUSH1 0x0 DUP6 DUP2 MSTORE PUSH1 0x20 ADD SWAP1 DUP2 MSTORE PUSH1 0x20 ADD PUSH1 0x0 KECCAK256 SWAP1 POP DUP3 DUP2 PUSH1 0x7 ADD DUP2 SWAP1 SSTORE POP PUSH1 0x1 DUP2 PUSH1 0x6 ADD PUSH1 0x0 PUSH2 0x100 EXP DUP2 SLOAD DUP2 PUSH1 0xFF MUL NOT AND SWAP1 DUP4 ISZERO ISZERO MUL OR SWAP1 SSTORE POP DUP1 PUSH1 0x2 ADD PUSH1 0x0 SWAP1 SLOAD SWAP1 PUSH2 0x100 EXP SWAP1 DIV PUSH20 0xFFFFFFFFFFFFFFFFFFFFFFFFFFFFFFFFFFFFFFFF AND PUSH20 0xFFFFFFFFFFFFFFFFFFFFFFFFFFFFFFFFFFFFFFFF AND PUSH4 0xA9059CBB DUP7 DUP9 PUSH1 0x40 MLOAD DUP4 PUSH4 0xFFFFFFFF AND PUSH1 0xE0 SHL DUP2 MSTORE PUSH1 0x4 ADD PUSH2 0xE01 SWAP3 SWAP2 SWAP1 PUSH2 0x2030 JUMP JUMPDEST PUSH1 0x20 PUSH1 0x40 MLOAD DUP1 DUP4 SUB DUP2 PUSH1 0x0 DUP8 DUP1 EXTCODESIZE ISZERO DUP1 ISZERO PUSH2 0xE1B JUMPI PUSH1 0x0 DUP1 REVERT JUMPDEST POP GAS CALL ISZERO DUP1 ISZERO PUSH2 0xE2F JUMPI RETURNDATASIZE PUSH1 0x0 DUP1 RETURNDATACOPY RETURNDATASIZE PUSH1 0x0 REVERT JUMPDEST POP POP POP POP PUSH1 0x40 MLOAD RETURNDATASIZE PUSH1 0x1F NOT PUSH1 0x1F DUP3 ADD AND DUP3 ADD DUP1 PUSH1 0x40 MSTORE POP DUP2 ADD SWAP1 PUSH2 0xE53 SWAP2 SWAP1 PUSH2 0x1C15 JUMP JUMPDEST PUSH2 0xE92 JUMPI PUSH1 0x40 MLOAD PUSH32 0x8C379A000000000000000000000000000000000000000000000000000000000 DUP2 MSTORE PUSH1 0x4 ADD PUSH2 0xE89 SWAP1 PUSH2 0x2116 JUMP JUMPDEST PUSH1 0x40 MLOAD DUP1 SWAP2 SUB SWAP1 REVERT JUMPDEST DUP4 PUSH32 0xCCC078C3CC52C3238BFB3152392FB494A9394ECAB9842BB9C46395DC84AD29C6 PUSH1 0x40 MLOAD PUSH1 0x40 MLOAD DUP1 SWAP2 SUB SWAP1 LOG2 PUSH1 0x1 SWAP2 POP POP SWAP5 SWAP4 POP POP POP POP JUMP JUMPDEST PUSH1 0x0 PUSH2 0xF15 PUSH2 0xEDA DUP4 PUSH2 0x186D JUMP JUMPDEST PUSH1 0x40 MLOAD DUP1 PUSH1 0x40 ADD PUSH1 0x40 MSTORE DUP1 PUSH1 0x1C DUP2 MSTORE PUSH1 0x20 ADD PUSH32 0x7472616E73616374696F6E496420646F6573206E6F7420657869737400000000 DUP2 MSTORE POP PUSH2 0x1824 JUMP JUMPDEST PUSH2 0xFB7 CALLER PUSH20 0xFFFFFFFFFFFFFFFFFFFFFFFFFFFFFFFFFFFFFFFF AND PUSH1 0x0 DUP1 DUP6 DUP2 MSTORE PUSH1 0x20 ADD SWAP1 DUP2 MSTORE PUSH1 0x20 ADD PUSH1 0x0 KECCAK256 PUSH1 0x0 ADD PUSH1 0x0 SWAP1 SLOAD SWAP1 PUSH2 0x100 EXP SWAP1 DIV PUSH20 0xFFFFFFFFFFFFFFFFFFFFFFFFFFFFFFFFFFFFFFFF AND PUSH20 0xFFFFFFFFFFFFFFFFFFFFFFFFFFFFFFFFFFFFFFFF AND EQ PUSH1 0x40 MLOAD DUP1 PUSH1 0x40 ADD PUSH1 0x40 MSTORE DUP1 PUSH1 0x16 DUP2 MSTORE PUSH1 0x20 ADD PUSH32 0x726566756E6461626C653A206E6F742073656E64657200000000000000000000 DUP2 MSTORE POP PUSH2 0x1824 JUMP JUMPDEST PUSH2 0x101F PUSH1 0x0 ISZERO ISZERO PUSH1 0x0 DUP1 DUP6 DUP2 MSTORE PUSH1 0x20 ADD SWAP1 DUP2 MSTORE PUSH1 0x20 ADD PUSH1 0x0 KECCAK256 PUSH1 0x6 ADD PUSH1 0x1 SWAP1 SLOAD SWAP1 PUSH2 0x100 EXP SWAP1 DIV PUSH1 0xFF AND ISZERO ISZERO EQ PUSH1 0x40 MLOAD DUP1 PUSH1 0x40 ADD PUSH1 0x40 MSTORE DUP1 PUSH1 0x1C DUP2 MSTORE PUSH1 0x20 ADD PUSH32 0x726566756E6461626C653A20616C726561647920726566756E64656400000000 DUP2 MSTORE POP PUSH2 0x1824 JUMP JUMPDEST PUSH2 0x1087 PUSH1 0x0 ISZERO ISZERO PUSH1 0x0 DUP1 DUP6 DUP2 MSTORE PUSH1 0x20 ADD SWAP1 DUP2 MSTORE PUSH1 0x20 ADD PUSH1 0x0 KECCAK256 PUSH1 0x6 ADD PUSH1 0x0 SWAP1 SLOAD SWAP1 PUSH2 0x100 EXP SWAP1 DIV PUSH1 0xFF AND ISZERO ISZERO EQ PUSH1 0x40 MLOAD DUP1 PUSH1 0x40 ADD PUSH1 0x40 MSTORE DUP1 PUSH1 0x1D DUP2 MSTORE PUSH1 0x20 ADD PUSH32 0x726566756E6461626C653A20616C72656164792077697468647261776E000000 DUP2 MSTORE POP PUSH2 0x1824 JUMP JUMPDEST PUSH2 0x10C1 TIMESTAMP PUSH1 0x0 DUP1 DUP6 DUP2 MSTORE PUSH1 0x20 ADD SWAP1 DUP2 MSTORE PUSH1 0x20 ADD PUSH1 0x0 KECCAK256 PUSH1 0x5 ADD SLOAD GT ISZERO PUSH1 0x40 MLOAD DUP1 PUSH1 0x60 ADD PUSH1 0x40 MSTORE DUP1 PUSH1 0x23 DUP2 MSTORE PUSH1 0x20 ADD PUSH2 0x2456 PUSH1 0x23 SWAP2 CODECOPY PUSH2 0x1824 JUMP JUMPDEST PUSH1 0x0 DUP1 PUSH1 0x0 DUP5 DUP2 MSTORE PUSH1 0x20 ADD SWAP1 DUP2 MSTORE PUSH1 0x20 ADD PUSH1 0x0 KECCAK256 SWAP1 POP PUSH1 0x1 DUP2 PUSH1 0x6 ADD PUSH1 0x1 PUSH2 0x100 EXP DUP2 SLOAD DUP2 PUSH1 0xFF MUL NOT AND SWAP1 DUP4 ISZERO ISZERO MUL OR SWAP1 SSTORE POP DUP1 PUSH1 0x2 ADD PUSH1 0x0 SWAP1 SLOAD SWAP1 PUSH2 0x100 EXP SWAP1 DIV PUSH20 0xFFFFFFFFFFFFFFFFFFFFFFFFFFFFFFFFFFFFFFFF AND PUSH20 0xFFFFFFFFFFFFFFFFFFFFFFFFFFFFFFFFFFFFFFFF AND PUSH4 0xA9059CBB DUP3 PUSH1 0x0 ADD PUSH1 0x0 SWAP1 SLOAD SWAP1 PUSH2 0x100 EXP SWAP1 DIV PUSH20 0xFFFFFFFFFFFFFFFFFFFFFFFFFFFFFFFFFFFFFFFF AND DUP4 PUSH1 0x3 ADD SLOAD PUSH1 0x40 MLOAD DUP4 PUSH4 0xFFFFFFFF AND PUSH1 0xE0 SHL DUP2 MSTORE PUSH1 0x4 ADD PUSH2 0x117B SWAP3 SWAP2 SWAP1 PUSH2 0x2030 JUMP JUMPDEST PUSH1 0x20 PUSH1 0x40 MLOAD DUP1 DUP4 SUB DUP2 PUSH1 0x0 DUP8 DUP1 EXTCODESIZE ISZERO DUP1 ISZERO PUSH2 0x1195 JUMPI PUSH1 0x0 DUP1 REVERT JUMPDEST POP GAS CALL ISZERO DUP1 ISZERO PUSH2 0x11A9 JUMPI RETURNDATASIZE PUSH1 0x0 DUP1 RETURNDATACOPY RETURNDATASIZE PUSH1 0x0 REVERT JUMPDEST POP POP POP POP PUSH1 0x40 MLOAD RETURNDATASIZE PUSH1 0x1F NOT PUSH1 0x1F DUP3 ADD AND DUP3 ADD DUP1 PUSH1 0x40 MSTORE POP DUP2 ADD SWAP1 PUSH2 0x11CD SWAP2 SWAP1 PUSH2 0x1C15 JUMP JUMPDEST PUSH2 0x120C JUMPI PUSH1 0x40 MLOAD PUSH32 0x8C379A000000000000000000000000000000000000000000000000000000000 DUP2 MSTORE PUSH1 0x4 ADD PUSH2 0x1203 SWAP1 PUSH2 0x2116 JUMP JUMPDEST PUSH1 0x40 MLOAD DUP1 SWAP2 SUB SWAP1 REVERT JUMPDEST DUP3 PUSH32 0x7B932D7C3C50D56F3E342FCA080984C95D87D5611EC3487235C1854056CC8EB4 PUSH1 0x40 MLOAD PUSH1 0x40 MLOAD DUP1 SWAP2 SUB SWAP1 LOG2 PUSH1 0x1 SWAP2 POP POP SWAP2 SWAP1 POP JUMP JUMPDEST PUSH2 0x12B4 PUSH1 0x1 PUSH1 0x0 DUP6 PUSH20 0xFFFFFFFFFFFFFFFFFFFFFFFFFFFFFFFFFFFFFFFF AND PUSH20 0xFFFFFFFFFFFFFFFFFFFFFFFFFFFFFFFFFFFFFFFF AND DUP2 MSTORE PUSH1 0x20 ADD SWAP1 DUP2 MSTORE PUSH1 0x20 ADD PUSH1 0x0 KECCAK256 PUSH1 0x0 ADD PUSH1 0x14 SWAP1 SLOAD SWAP1 PUSH2 0x100 EXP SWAP1 DIV PUSH1 0xFF AND PUSH1 0x40 MLOAD DUP1 PUSH1 0x60 ADD PUSH1 0x40 MSTORE DUP1 PUSH1 0x30 DUP2 MSTORE PUSH1 0x20 ADD PUSH2 0x249A PUSH1 0x30 SWAP2 CODECOPY PUSH2 0x1824 JUMP JUMPDEST PUSH1 0x0 DUP1 PUSH1 0x0 DUP5 DUP2 MSTORE PUSH1 0x20 ADD SWAP1 DUP2 MSTORE PUSH1 0x20 ADD PUSH1 0x0 KECCAK256 SWAP1 POP DUP2 DUP2 PUSH1 0x7 ADD DUP2 SWAP1 SSTORE POP PUSH1 0x1 DUP2 PUSH1 0x6 ADD PUSH1 0x0 PUSH2 0x100 EXP DUP2 SLOAD DUP2 PUSH1 0xFF MUL NOT AND SWAP1 DUP4 ISZERO ISZERO MUL OR SWAP1 SSTORE POP POP POP POP POP JUMP JUMPDEST DUP3 PUSH20 0xFFFFFFFFFFFFFFFFFFFFFFFFFFFFFFFFFFFFFFFF AND PUSH4 0xA9059CBB DUP4 DUP4 PUSH1 0x40 MLOAD DUP4 PUSH4 0xFFFFFFFF AND PUSH1 0xE0 SHL DUP2 MSTORE PUSH1 0x4 ADD PUSH2 0x1331 SWAP3 SWAP2 SWAP1 PUSH2 0x2030 JUMP JUMPDEST PUSH1 0x20 PUSH1 0x40 MLOAD DUP1 DUP4 SUB DUP2 PUSH1 0x0 DUP8 DUP1 EXTCODESIZE ISZERO DUP1 ISZERO PUSH2 0x134B JUMPI PUSH1 0x0 DUP1 REVERT JUMPDEST POP GAS CALL ISZERO DUP1 ISZERO PUSH2 0x135F JUMPI RETURNDATASIZE PUSH1 0x0 DUP1 RETURNDATACOPY RETURNDATASIZE PUSH1 0x0 REVERT JUMPDEST POP POP POP POP PUSH1 0x40 MLOAD RETURNDATASIZE PUSH1 0x1F NOT PUSH1 0x1F DUP3 ADD AND DUP3 ADD DUP1 PUSH1 0x40 MSTORE POP DUP2 ADD SWAP1 PUSH2 0x1383 SWAP2 SWAP1 PUSH2 0x1C15 JUMP JUMPDEST PUSH2 0x13C2 JUMPI PUSH1 0x40 MLOAD PUSH32 0x8C379A000000000000000000000000000000000000000000000000000000000 DUP2 MSTORE PUSH1 0x4 ADD PUSH2 0x13B9 SWAP1 PUSH2 0x2116 JUMP JUMPDEST PUSH1 0x40 MLOAD DUP1 SWAP2 SUB SWAP1 REVERT JUMPDEST POP POP POP JUMP JUMPDEST PUSH2 0x1438 PUSH1 0x1 PUSH1 0x0 DUP10 PUSH20 0xFFFFFFFFFFFFFFFFFFFFFFFFFFFFFFFFFFFFFFFF AND PUSH20 0xFFFFFFFFFFFFFFFFFFFFFFFFFFFFFFFFFFFFFFFF AND DUP2 MSTORE PUSH1 0x20 ADD SWAP1 DUP2 MSTORE PUSH1 0x20 ADD PUSH1 0x0 KECCAK256 PUSH1 0x0 ADD PUSH1 0x14 SWAP1 SLOAD SWAP1 PUSH2 0x100 EXP SWAP1 DIV PUSH1 0xFF AND PUSH1 0x40 MLOAD DUP1 PUSH1 0x60 ADD PUSH1 0x40 MSTORE DUP1 PUSH1 0x2D DUP2 MSTORE PUSH1 0x20 ADD PUSH2 0x2429 PUSH1 0x2D SWAP2 CODECOPY PUSH2 0x1824 JUMP JUMPDEST PUSH1 0x40 MLOAD DUP1 PUSH2 0x120 ADD PUSH1 0x40 MSTORE DUP1 CALLER PUSH20 0xFFFFFFFFFFFFFFFFFFFFFFFFFFFFFFFFFFFFFFFF AND DUP2 MSTORE PUSH1 0x20 ADD DUP7 PUSH20 0xFFFFFFFFFFFFFFFFFFFFFFFFFFFFFFFFFFFFFFFF AND DUP2 MSTORE PUSH1 0x20 ADD DUP4 PUSH20 0xFFFFFFFFFFFFFFFFFFFFFFFFFFFFFFFFFFFFFFFF AND DUP2 MSTORE PUSH1 0x20 ADD DUP3 DUP2 MSTORE PUSH1 0x20 ADD DUP6 DUP2 MSTORE PUSH1 0x20 ADD DUP5 DUP2 MSTORE PUSH1 0x20 ADD PUSH1 0x0 ISZERO ISZERO DUP2 MSTORE PUSH1 0x20 ADD PUSH1 0x0 ISZERO ISZERO DUP2 MSTORE PUSH1 0x20 ADD PUSH1 0x0 DUP1 SHL DUP2 MSTORE POP PUSH1 0x0 DUP1 DUP9 DUP2 MSTORE PUSH1 0x20 ADD SWAP1 DUP2 MSTORE PUSH1 0x20 ADD PUSH1 0x0 KECCAK256 PUSH1 0x0 DUP3 ADD MLOAD DUP2 PUSH1 0x0 ADD PUSH1 0x0 PUSH2 0x100 EXP DUP2 SLOAD DUP2 PUSH20 0xFFFFFFFFFFFFFFFFFFFFFFFFFFFFFFFFFFFFFFFF MUL NOT AND SWAP1 DUP4 PUSH20 0xFFFFFFFFFFFFFFFFFFFFFFFFFFFFFFFFFFFFFFFF AND MUL OR SWAP1 SSTORE POP PUSH1 0x20 DUP3 ADD MLOAD DUP2 PUSH1 0x1 ADD PUSH1 0x0 PUSH2 0x100 EXP DUP2 SLOAD DUP2 PUSH20 0xFFFFFFFFFFFFFFFFFFFFFFFFFFFFFFFFFFFFFFFF MUL NOT AND SWAP1 DUP4 PUSH20 0xFFFFFFFFFFFFFFFFFFFFFFFFFFFFFFFFFFFFFFFF AND MUL OR SWAP1 SSTORE POP PUSH1 0x40 DUP3 ADD MLOAD DUP2 PUSH1 0x2 ADD PUSH1 0x0 PUSH2 0x100 EXP DUP2 SLOAD DUP2 PUSH20 0xFFFFFFFFFFFFFFFFFFFFFFFFFFFFFFFFFFFFFFFF MUL NOT AND SWAP1 DUP4 PUSH20 0xFFFFFFFFFFFFFFFFFFFFFFFFFFFFFFFFFFFFFFFF AND MUL OR SWAP1 SSTORE POP PUSH1 0x60 DUP3 ADD MLOAD DUP2 PUSH1 0x3 ADD SSTORE PUSH1 0x80 DUP3 ADD MLOAD DUP2 PUSH1 0x4 ADD SSTORE PUSH1 0xA0 DUP3 ADD MLOAD DUP2 PUSH1 0x5 ADD SSTORE PUSH1 0xC0 DUP3 ADD MLOAD DUP2 PUSH1 0x6 ADD PUSH1 0x0 PUSH2 0x100 EXP DUP2 SLOAD DUP2 PUSH1 0xFF MUL NOT AND SWAP1 DUP4 ISZERO ISZERO MUL OR SWAP1 SSTORE POP PUSH1 0xE0 DUP3 ADD MLOAD DUP2 PUSH1 0x6 ADD PUSH1 0x1 PUSH2 0x100 EXP DUP2 SLOAD DUP2 PUSH1 0xFF MUL NOT AND SWAP1 DUP4 ISZERO ISZERO MUL OR SWAP1 SSTORE POP PUSH2 0x100 DUP3 ADD MLOAD DUP2 PUSH1 0x7 ADD SSTORE SWAP1 POP POP POP POP POP POP POP POP POP JUMP JUMPDEST DUP4 PUSH20 0xFFFFFFFFFFFFFFFFFFFFFFFFFFFFFFFFFFFFFFFF AND PUSH4 0x23B872DD DUP5 DUP5 DUP5 PUSH1 0x40 MLOAD DUP5 PUSH4 0xFFFFFFFF AND PUSH1 0xE0 SHL DUP2 MSTORE PUSH1 0x4 ADD PUSH2 0x165C SWAP4 SWAP3 SWAP2 SWAP1 PUSH2 0x1FF9 JUMP JUMPDEST PUSH1 0x20 PUSH1 0x40 MLOAD DUP1 DUP4 SUB DUP2 PUSH1 0x0 DUP8 DUP1 EXTCODESIZE ISZERO DUP1 ISZERO PUSH2 0x1676 JUMPI PUSH1 0x0 DUP1 REVERT JUMPDEST POP GAS CALL ISZERO DUP1 ISZERO PUSH2 0x168A JUMPI RETURNDATASIZE PUSH1 0x0 DUP1 RETURNDATACOPY RETURNDATASIZE PUSH1 0x0 REVERT JUMPDEST POP POP POP POP PUSH1 0x40 MLOAD RETURNDATASIZE PUSH1 0x1F NOT PUSH1 0x1F DUP3 ADD AND DUP3 ADD DUP1 PUSH1 0x40 MSTORE POP DUP2 ADD SWAP1 PUSH2 0x16AE SWAP2 SWAP1 PUSH2 0x1C15 JUMP JUMPDEST PUSH2 0x16ED JUMPI PUSH1 0x40 MLOAD PUSH32 0x8C379A000000000000000000000000000000000000000000000000000000000 DUP2 MSTORE PUSH1 0x4 ADD PUSH2 0x16E4 SWAP1 PUSH2 0x2116 JUMP JUMPDEST PUSH1 0x40 MLOAD DUP1 SWAP2 SUB SWAP1 REVERT JUMPDEST POP POP POP POP JUMP JUMPDEST PUSH1 0x0 DUP1 PUSH1 0x0 DUP1 PUSH1 0x0 DUP1 PUSH1 0x0 DUP1 PUSH1 0x0 DUP1 ISZERO ISZERO PUSH2 0x170D DUP12 PUSH2 0x186D JUMP JUMPDEST ISZERO ISZERO EQ ISZERO PUSH2 0x1746 JUMPI PUSH1 0x0 DUP1 PUSH1 0x0 DUP1 PUSH1 0x0 DUP1 PUSH1 0x0 DUP1 PUSH1 0x0 DUP5 PUSH1 0x0 SHL SWAP5 POP DUP1 PUSH1 0x0 SHL SWAP1 POP SWAP9 POP SWAP9 POP SWAP9 POP SWAP9 POP SWAP9 POP SWAP9 POP SWAP9 POP SWAP9 POP SWAP9 POP PUSH2 0x1817 JUMP JUMPDEST PUSH1 0x0 DUP1 PUSH1 0x0 DUP13 DUP2 MSTORE PUSH1 0x20 ADD SWAP1 DUP2 MSTORE PUSH1 0x20 ADD PUSH1 0x0 KECCAK256 SWAP1 POP DUP1 PUSH1 0x0 ADD PUSH1 0x0 SWAP1 SLOAD SWAP1 PUSH2 0x100 EXP SWAP1 DIV PUSH20 0xFFFFFFFFFFFFFFFFFFFFFFFFFFFFFFFFFFFFFFFF AND DUP2 PUSH1 0x1 ADD PUSH1 0x0 SWAP1 SLOAD SWAP1 PUSH2 0x100 EXP SWAP1 DIV PUSH20 0xFFFFFFFFFFFFFFFFFFFFFFFFFFFFFFFFFFFFFFFF AND DUP3 PUSH1 0x2 ADD PUSH1 0x0 SWAP1 SLOAD SWAP1 PUSH2 0x100 EXP SWAP1 DIV PUSH20 0xFFFFFFFFFFFFFFFFFFFFFFFFFFFFFFFFFFFFFFFF AND DUP4 PUSH1 0x3 ADD SLOAD DUP5 PUSH1 0x4 ADD SLOAD DUP6 PUSH1 0x5 ADD SLOAD DUP7 PUSH1 0x6 ADD PUSH1 0x0 SWAP1 SLOAD SWAP1 PUSH2 0x100 EXP SWAP1 DIV PUSH1 0xFF AND DUP8 PUSH1 0x6 ADD PUSH1 0x1 SWAP1 SLOAD SWAP1 PUSH2 0x100 EXP SWAP1 DIV PUSH1 0xFF AND DUP9 PUSH1 0x7 ADD SLOAD SWAP10 POP SWAP10 POP SWAP10 POP SWAP10 POP SWAP10 POP SWAP10 POP SWAP10 POP SWAP10 POP SWAP10 POP POP JUMPDEST SWAP2 SWAP4 SWAP6 SWAP8 SWAP10 SWAP1 SWAP3 SWAP5 SWAP7 SWAP9 POP JUMP JUMPDEST PUSH1 0x0 ISZERO ISZERO DUP3 ISZERO ISZERO EQ ISZERO PUSH2 0x1869 JUMPI PUSH32 0x560DA9D4A39E8B8B206D502334EC642BE7774EAAF28DCE67F25DA29A45DA89EC DUP2 PUSH1 0x40 MLOAD PUSH2 0x1860 SWAP2 SWAP1 PUSH2 0x20D4 JUMP JUMPDEST PUSH1 0x40 MLOAD DUP1 SWAP2 SUB SWAP1 LOG1 JUMPDEST POP POP JUMP JUMPDEST PUSH1 0x0 DUP1 PUSH20 0xFFFFFFFFFFFFFFFFFFFFFFFFFFFFFFFFFFFFFFFF AND PUSH1 0x0 DUP1 DUP5 DUP2 MSTORE PUSH1 0x20 ADD SWAP1 DUP2 MSTORE PUSH1 0x20 ADD PUSH1 0x0 KECCAK256 PUSH1 0x0 ADD PUSH1 0x0 SWAP1 SLOAD SWAP1 PUSH2 0x100 EXP SWAP1 DIV PUSH20 0xFFFFFFFFFFFFFFFFFFFFFFFFFFFFFFFFFFFFFFFF AND PUSH20 0xFFFFFFFFFFFFFFFFFFFFFFFFFFFFFFFFFFFFFFFF AND EQ ISZERO SWAP1 POP SWAP2 SWAP1 POP JUMP JUMPDEST PUSH1 0x0 PUSH2 0x18EE PUSH2 0x18E9 DUP5 PUSH2 0x215B JUMP JUMPDEST PUSH2 0x2136 JUMP JUMPDEST SWAP1 POP DUP3 DUP2 MSTORE PUSH1 0x20 DUP2 ADD DUP5 DUP5 DUP5 ADD GT ISZERO PUSH2 0x1906 JUMPI PUSH1 0x0 DUP1 REVERT JUMPDEST PUSH2 0x1911 DUP5 DUP3 DUP6 PUSH2 0x2210 JUMP JUMPDEST POP SWAP4 SWAP3 POP POP POP JUMP JUMPDEST PUSH1 0x0 DUP2 CALLDATALOAD SWAP1 POP PUSH2 0x1928 DUP2 PUSH2 0x2380 JUMP JUMPDEST SWAP3 SWAP2 POP POP JUMP JUMPDEST PUSH1 0x0 DUP2 CALLDATALOAD SWAP1 POP PUSH2 0x193D DUP2 PUSH2 0x2397 JUMP JUMPDEST SWAP3 SWAP2 POP POP JUMP JUMPDEST PUSH1 0x0 DUP2 MLOAD SWAP1 POP PUSH2 0x1952 DUP2 PUSH2 0x2397 JUMP JUMPDEST SWAP3 SWAP2 POP POP JUMP JUMPDEST PUSH1 0x0 DUP2 CALLDATALOAD SWAP1 POP PUSH2 0x1967 DUP2 PUSH2 0x23AE JUMP JUMPDEST SWAP3 SWAP2 POP POP JUMP JUMPDEST PUSH1 0x0 DUP2 MLOAD SWAP1 POP PUSH2 0x197C DUP2 PUSH2 0x23AE JUMP JUMPDEST SWAP3 SWAP2 POP POP JUMP JUMPDEST PUSH1 0x0 DUP3 PUSH1 0x1F DUP4 ADD SLT PUSH2 0x1993 JUMPI PUSH1 0x0 DUP1 REVERT JUMPDEST DUP2 CALLDATALOAD PUSH2 0x19A3 DUP5 DUP3 PUSH1 0x20 DUP7 ADD PUSH2 0x18DB JUMP JUMPDEST SWAP2 POP POP SWAP3 SWAP2 POP POP JUMP JUMPDEST PUSH1 0x0 DUP2 CALLDATALOAD SWAP1 POP PUSH2 0x19BB DUP2 PUSH2 0x23C5 JUMP JUMPDEST SWAP3 SWAP2 POP POP JUMP JUMPDEST PUSH1 0x0 DUP2 MLOAD SWAP1 POP PUSH2 0x19D0 DUP2 PUSH2 0x23C5 JUMP JUMPDEST SWAP3 SWAP2 POP POP JUMP JUMPDEST PUSH1 0x0 PUSH1 0x20 DUP3 DUP5 SUB SLT ISZERO PUSH2 0x19E8 JUMPI PUSH1 0x0 DUP1 REVERT JUMPDEST PUSH1 0x0 PUSH2 0x19F6 DUP5 DUP3 DUP6 ADD PUSH2 0x1919 JUMP JUMPDEST SWAP2 POP POP SWAP3 SWAP2 POP POP JUMP JUMPDEST PUSH1 0x0 DUP1 PUSH1 0x0 DUP1 PUSH1 0x80 DUP6 DUP8 SUB SLT ISZERO PUSH2 0x1A15 JUMPI PUSH1 0x0 DUP1 REVERT JUMPDEST PUSH1 0x0 PUSH2 0x1A23 DUP8 DUP3 DUP9 ADD PUSH2 0x1919 JUMP JUMPDEST SWAP5 POP POP PUSH1 0x20 PUSH2 0x1A34 DUP8 DUP3 DUP9 ADD PUSH2 0x1919 JUMP JUMPDEST SWAP4 POP POP PUSH1 0x40 PUSH2 0x1A45 DUP8 DUP3 DUP9 ADD PUSH2 0x1919 JUMP JUMPDEST SWAP3 POP POP PUSH1 0x60 PUSH2 0x1A56 DUP8 DUP3 DUP9 ADD PUSH2 0x19AC JUMP JUMPDEST SWAP2 POP POP SWAP3 SWAP6 SWAP2 SWAP5 POP SWAP3 POP JUMP JUMPDEST PUSH1 0x0 DUP1 PUSH1 0x0 PUSH1 0x60 DUP5 DUP7 SUB SLT ISZERO PUSH2 0x1A77 JUMPI PUSH1 0x0 DUP1 REVERT JUMPDEST PUSH1 0x0 PUSH2 0x1A85 DUP7 DUP3 DUP8 ADD PUSH2 0x1919 JUMP JUMPDEST SWAP4 POP POP PUSH1 0x20 PUSH2 0x1A96 DUP7 DUP3 DUP8 ADD PUSH2 0x1919 JUMP JUMPDEST SWAP3 POP POP PUSH1 0x40 PUSH2 0x1AA7 DUP7 DUP3 DUP8 ADD PUSH2 0x19AC JUMP JUMPDEST SWAP2 POP POP SWAP3 POP SWAP3 POP SWAP3 JUMP JUMPDEST PUSH1 0x0 DUP1 PUSH1 0x0 DUP1 PUSH1 0x0 DUP1 PUSH1 0x0 PUSH1 0xE0 DUP9 DUP11 SUB SLT ISZERO PUSH2 0x1ACC JUMPI PUSH1 0x0 DUP1 REVERT JUMPDEST PUSH1 0x0 PUSH2 0x1ADA DUP11 DUP3 DUP12 ADD PUSH2 0x1919 JUMP JUMPDEST SWAP8 POP POP PUSH1 0x20 PUSH2 0x1AEB DUP11 DUP3 DUP12 ADD PUSH2 0x1958 JUMP JUMPDEST SWAP7 POP POP PUSH1 0x40 PUSH2 0x1AFC DUP11 DUP3 DUP12 ADD PUSH2 0x1919 JUMP JUMPDEST SWAP6 POP POP PUSH1 0x60 PUSH2 0x1B0D DUP11 DUP3 DUP12 ADD PUSH2 0x1958 JUMP JUMPDEST SWAP5 POP POP PUSH1 0x80 PUSH2 0x1B1E DUP11 DUP3 DUP12 ADD PUSH2 0x19AC JUMP JUMPDEST SWAP4 POP POP PUSH1 0xA0 PUSH2 0x1B2F DUP11 DUP3 DUP12 ADD PUSH2 0x1919 JUMP JUMPDEST SWAP3 POP POP PUSH1 0xC0 PUSH2 0x1B40 DUP11 DUP3 DUP12 ADD PUSH2 0x19AC JUMP JUMPDEST SWAP2 POP POP SWAP3 SWAP6 SWAP9 SWAP2 SWAP5 SWAP8 POP SWAP3 SWAP6 POP JUMP JUMPDEST PUSH1 0x0 DUP1 PUSH1 0x0 PUSH1 0x60 DUP5 DUP7 SUB SLT ISZERO PUSH2 0x1B64 JUMPI PUSH1 0x0 DUP1 REVERT JUMPDEST PUSH1 0x0 PUSH2 0x1B72 DUP7 DUP3 DUP8 ADD PUSH2 0x1919 JUMP JUMPDEST SWAP4 POP POP PUSH1 0x20 PUSH2 0x1B83 DUP7 DUP3 DUP8 ADD PUSH2 0x1958 JUMP JUMPDEST SWAP3 POP POP PUSH1 0x40 PUSH2 0x1B94 DUP7 DUP3 DUP8 ADD PUSH2 0x1958 JUMP JUMPDEST SWAP2 POP POP SWAP3 POP SWAP3 POP SWAP3 JUMP JUMPDEST PUSH1 0x0 DUP1 PUSH1 0x0 DUP1 PUSH1 0x0 PUSH1 0xA0 DUP7 DUP9 SUB SLT ISZERO PUSH2 0x1BB6 JUMPI PUSH1 0x0 DUP1 REVERT JUMPDEST PUSH1 0x0 PUSH2 0x1BC4 DUP9 DUP3 DUP10 ADD PUSH2 0x1919 JUMP JUMPDEST SWAP6 POP POP PUSH1 0x20 PUSH2 0x1BD5 DUP9 DUP3 DUP10 ADD PUSH2 0x1958 JUMP JUMPDEST SWAP5 POP POP PUSH1 0x40 PUSH2 0x1BE6 DUP9 DUP3 DUP10 ADD PUSH2 0x19AC JUMP JUMPDEST SWAP4 POP POP PUSH1 0x60 PUSH2 0x1BF7 DUP9 DUP3 DUP10 ADD PUSH2 0x1919 JUMP JUMPDEST SWAP3 POP POP PUSH1 0x80 PUSH2 0x1C08 DUP9 DUP3 DUP10 ADD PUSH2 0x19AC JUMP JUMPDEST SWAP2 POP POP SWAP3 SWAP6 POP SWAP3 SWAP6 SWAP1 SWAP4 POP JUMP JUMPDEST PUSH1 0x0 PUSH1 0x20 DUP3 DUP5 SUB SLT ISZERO PUSH2 0x1C27 JUMPI PUSH1 0x0 DUP1 REVERT JUMPDEST PUSH1 0x0 PUSH2 0x1C35 DUP5 DUP3 DUP6 ADD PUSH2 0x1943 JUMP JUMPDEST SWAP2 POP POP SWAP3 SWAP2 POP POP JUMP JUMPDEST PUSH1 0x0 DUP1 PUSH1 0x40 DUP4 DUP6 SUB SLT ISZERO PUSH2 0x1C51 JUMPI PUSH1 0x0 DUP1 REVERT JUMPDEST PUSH1 0x0 PUSH2 0x1C5F DUP6 DUP3 DUP7 ADD PUSH2 0x192E JUMP JUMPDEST SWAP3 POP POP PUSH1 0x20 DUP4 ADD CALLDATALOAD PUSH8 0xFFFFFFFFFFFFFFFF DUP2 GT ISZERO PUSH2 0x1C7C JUMPI PUSH1 0x0 DUP1 REVERT JUMPDEST PUSH2 0x1C88 DUP6 DUP3 DUP7 ADD PUSH2 0x1982 JUMP JUMPDEST SWAP2 POP POP SWAP3 POP SWAP3 SWAP1 POP JUMP JUMPDEST PUSH1 0x0 PUSH1 0x20 DUP3 DUP5 SUB SLT ISZERO PUSH2 0x1CA4 JUMPI PUSH1 0x0 DUP1 REVERT JUMPDEST PUSH1 0x0 PUSH2 0x1CB2 DUP5 DUP3 DUP6 ADD PUSH2 0x1958 JUMP JUMPDEST SWAP2 POP POP SWAP3 SWAP2 POP POP JUMP JUMPDEST PUSH1 0x0 PUSH1 0x20 DUP3 DUP5 SUB SLT ISZERO PUSH2 0x1CCD JUMPI PUSH1 0x0 DUP1 REVERT JUMPDEST PUSH1 0x0 PUSH2 0x1CDB DUP5 DUP3 DUP6 ADD PUSH2 0x196D JUMP JUMPDEST SWAP2 POP POP SWAP3 SWAP2 POP POP JUMP JUMPDEST PUSH1 0x0 PUSH1 0x20 DUP3 DUP5 SUB SLT ISZERO PUSH2 0x1CF6 JUMPI PUSH1 0x0 DUP1 REVERT JUMPDEST PUSH1 0x0 PUSH2 0x1D04 DUP5 DUP3 DUP6 ADD PUSH2 0x19C1 JUMP JUMPDEST SWAP2 POP POP SWAP3 SWAP2 POP POP JUMP JUMPDEST PUSH1 0x0 DUP1 PUSH1 0x0 DUP1 PUSH1 0x80 DUP6 DUP8 SUB SLT ISZERO PUSH2 0x1D23 JUMPI PUSH1 0x0 DUP1 REVERT JUMPDEST PUSH1 0x0 PUSH2 0x1D31 DUP8 DUP3 DUP9 ADD PUSH2 0x19AC JUMP JUMPDEST SWAP5 POP POP PUSH1 0x20 PUSH2 0x1D42 DUP8 DUP3 DUP9 ADD PUSH2 0x1919 JUMP JUMPDEST SWAP4 POP POP PUSH1 0x40 PUSH2 0x1D53 DUP8 DUP3 DUP9 ADD PUSH2 0x1958 JUMP JUMPDEST SWAP3 POP POP PUSH1 0x60 PUSH2 0x1D64 DUP8 DUP3 DUP9 ADD PUSH2 0x1958 JUMP JUMPDEST SWAP2 POP POP SWAP3 SWAP6 SWAP2 SWAP5 POP SWAP3 POP JUMP JUMPDEST PUSH2 0x1D79 DUP2 PUSH2 0x21BE JUMP JUMPDEST DUP3 MSTORE POP POP JUMP JUMPDEST PUSH2 0x1D90 PUSH2 0x1D8B DUP3 PUSH2 0x21BE JUMP JUMPDEST PUSH2 0x2283 JUMP JUMPDEST DUP3 MSTORE POP POP JUMP JUMPDEST PUSH2 0x1D9F DUP2 PUSH2 0x21D0 JUMP JUMPDEST DUP3 MSTORE POP POP JUMP JUMPDEST PUSH2 0x1DAE DUP2 PUSH2 0x21DC JUMP JUMPDEST DUP3 MSTORE POP POP JUMP JUMPDEST PUSH2 0x1DC5 PUSH2 0x1DC0 DUP3 PUSH2 0x21DC JUMP JUMPDEST PUSH2 0x2295 JUMP JUMPDEST DUP3 MSTORE POP POP JUMP JUMPDEST PUSH1 0x0 PUSH2 0x1DD6 DUP3 PUSH2 0x218C JUMP JUMPDEST PUSH2 0x1DE0 DUP2 DUP6 PUSH2 0x21A2 JUMP JUMPDEST SWAP4 POP PUSH2 0x1DF0 DUP2 DUP6 PUSH1 0x20 DUP7 ADD PUSH2 0x221F JUMP JUMPDEST DUP1 DUP5 ADD SWAP2 POP POP SWAP3 SWAP2 POP POP JUMP JUMPDEST PUSH1 0x0 PUSH2 0x1E07 DUP3 PUSH2 0x2197 JUMP JUMPDEST PUSH2 0x1E11 DUP2 DUP6 PUSH2 0x21AD JUMP JUMPDEST SWAP4 POP PUSH2 0x1E21 DUP2 DUP6 PUSH1 0x20 DUP7 ADD PUSH2 0x221F JUMP JUMPDEST PUSH2 0x1E2A DUP2 PUSH2 0x22EA JUMP JUMPDEST DUP5 ADD SWAP2 POP POP SWAP3 SWAP2 POP POP JUMP JUMPDEST PUSH1 0x0 PUSH2 0x1E42 PUSH1 0x17 DUP4 PUSH2 0x21AD JUMP JUMPDEST SWAP2 POP PUSH2 0x1E4D DUP3 PUSH2 0x2308 JUMP JUMPDEST PUSH1 0x20 DUP3 ADD SWAP1 POP SWAP2 SWAP1 POP JUMP JUMPDEST PUSH1 0x0 PUSH2 0x1E65 PUSH1 0x22 DUP4 PUSH2 0x21AD JUMP JUMPDEST SWAP2 POP PUSH2 0x1E70 DUP3 PUSH2 0x2331 JUMP JUMPDEST PUSH1 0x40 DUP3 ADD SWAP1 POP SWAP2 SWAP1 POP JUMP JUMPDEST PUSH2 0x1E84 DUP2 PUSH2 0x2206 JUMP JUMPDEST DUP3 MSTORE POP POP JUMP JUMPDEST PUSH2 0x1E9B PUSH2 0x1E96 DUP3 PUSH2 0x2206 JUMP JUMPDEST PUSH2 0x22B1 JUMP JUMPDEST DUP3 MSTORE POP POP JUMP JUMPDEST PUSH1 0x0 PUSH2 0x1EAD DUP3 DUP10 PUSH2 0x1D7F JUMP JUMPDEST PUSH1 0x14 DUP3 ADD SWAP2 POP PUSH2 0x1EBD DUP3 DUP9 PUSH2 0x1D7F JUMP JUMPDEST PUSH1 0x14 DUP3 ADD SWAP2 POP PUSH2 0x1ECD DUP3 DUP8 PUSH2 0x1D7F JUMP JUMPDEST PUSH1 0x14 DUP3 ADD SWAP2 POP PUSH2 0x1EDD DUP3 DUP7 PUSH2 0x1E8A JUMP JUMPDEST PUSH1 0x20 DUP3 ADD SWAP2 POP PUSH2 0x1EED DUP3 DUP6 PUSH2 0x1DB4 JUMP JUMPDEST PUSH1 0x20 DUP3 ADD SWAP2 POP PUSH2 0x1EFD DUP3 DUP5 PUSH2 0x1E8A JUMP JUMPDEST PUSH1 0x20 DUP3 ADD SWAP2 POP DUP2 SWAP1 POP SWAP8 SWAP7 POP POP POP POP POP POP POP JUMP JUMPDEST PUSH1 0x0 PUSH2 0x1F1D DUP3 DUP5 PUSH2 0x1DB4 JUMP JUMPDEST PUSH1 0x20 DUP3 ADD SWAP2 POP DUP2 SWAP1 POP SWAP3 SWAP2 POP POP JUMP JUMPDEST PUSH1 0x0 PUSH2 0x1F38 DUP3 DUP5 PUSH2 0x1DCB JUMP JUMPDEST SWAP2 POP DUP2 SWAP1 POP SWAP3 SWAP2 POP POP JUMP JUMPDEST PUSH1 0x0 PUSH1 0x40 DUP3 ADD SWAP1 POP PUSH2 0x1F58 PUSH1 0x0 DUP4 ADD DUP6 PUSH2 0x1D70 JUMP JUMPDEST PUSH2 0x1F65 PUSH1 0x20 DUP4 ADD DUP5 PUSH2 0x1D70 JUMP JUMPDEST SWAP4 SWAP3 POP POP POP JUMP JUMPDEST PUSH1 0x0 PUSH2 0x120 DUP3 ADD SWAP1 POP PUSH2 0x1F82 PUSH1 0x0 DUP4 ADD DUP13 PUSH2 0x1D70 JUMP JUMPDEST PUSH2 0x1F8F PUSH1 0x20 DUP4 ADD DUP12 PUSH2 0x1D70 JUMP JUMPDEST PUSH2 0x1F9C PUSH1 0x40 DUP4 ADD DUP11 PUSH2 0x1D70 JUMP JUMPDEST PUSH2 0x1FA9 PUSH1 0x60 DUP4 ADD DUP10 PUSH2 0x1E7B JUMP JUMPDEST PUSH2 0x1FB6 PUSH1 0x80 DUP4 ADD DUP9 PUSH2 0x1DA5 JUMP JUMPDEST PUSH2 0x1FC3 PUSH1 0xA0 DUP4 ADD DUP8 PUSH2 0x1E7B JUMP JUMPDEST PUSH2 0x1FD0 PUSH1 0xC0 DUP4 ADD DUP7 PUSH2 0x1D96 JUMP JUMPDEST PUSH2 0x1FDD PUSH1 0xE0 DUP4 ADD DUP6 PUSH2 0x1D96 JUMP JUMPDEST PUSH2 0x1FEB PUSH2 0x100 DUP4 ADD DUP5 PUSH2 0x1DA5 JUMP JUMPDEST SWAP11 SWAP10 POP POP POP POP POP POP POP POP POP POP JUMP JUMPDEST PUSH1 0x0 PUSH1 0x60 DUP3 ADD SWAP1 POP PUSH2 0x200E PUSH1 0x0 DUP4 ADD DUP7 PUSH2 0x1D70 JUMP JUMPDEST PUSH2 0x201B PUSH1 0x20 DUP4 ADD DUP6 PUSH2 0x1D70 JUMP JUMPDEST PUSH2 0x2028 PUSH1 0x40 DUP4 ADD DUP5 PUSH2 0x1E7B JUMP JUMPDEST SWAP5 SWAP4 POP POP POP POP JUMP JUMPDEST PUSH1 0x0 PUSH1 0x40 DUP3 ADD SWAP1 POP PUSH2 0x2045 PUSH1 0x0 DUP4 ADD DUP6 PUSH2 0x1D70 JUMP JUMPDEST PUSH2 0x2052 PUSH1 0x20 DUP4 ADD DUP5 PUSH2 0x1E7B JUMP JUMPDEST SWAP4 SWAP3 POP POP POP JUMP JUMPDEST PUSH1 0x0 PUSH1 0x80 DUP3 ADD SWAP1 POP PUSH2 0x206E PUSH1 0x0 DUP4 ADD DUP8 PUSH2 0x1D70 JUMP JUMPDEST PUSH2 0x207B PUSH1 0x20 DUP4 ADD DUP7 PUSH2 0x1E7B JUMP JUMPDEST PUSH2 0x2088 PUSH1 0x40 DUP4 ADD DUP6 PUSH2 0x1DA5 JUMP JUMPDEST PUSH2 0x2095 PUSH1 0x60 DUP4 ADD DUP5 PUSH2 0x1E7B JUMP JUMPDEST SWAP6 SWAP5 POP POP POP POP POP JUMP JUMPDEST PUSH1 0x0 PUSH1 0x20 DUP3 ADD SWAP1 POP PUSH2 0x20B3 PUSH1 0x0 DUP4 ADD DUP5 PUSH2 0x1D96 JUMP JUMPDEST SWAP3 SWAP2 POP POP JUMP JUMPDEST PUSH1 0x0 PUSH1 0x20 DUP3 ADD SWAP1 POP PUSH2 0x20CE PUSH1 0x0 DUP4 ADD DUP5 PUSH2 0x1DA5 JUMP JUMPDEST SWAP3 SWAP2 POP POP JUMP JUMPDEST PUSH1 0x0 PUSH1 0x20 DUP3 ADD SWAP1 POP DUP2 DUP2 SUB PUSH1 0x0 DUP4 ADD MSTORE PUSH2 0x20EE DUP2 DUP5 PUSH2 0x1DFC JUMP JUMPDEST SWAP1 POP SWAP3 SWAP2 POP POP JUMP JUMPDEST PUSH1 0x0 PUSH1 0x20 DUP3 ADD SWAP1 POP DUP2 DUP2 SUB PUSH1 0x0 DUP4 ADD MSTORE PUSH2 0x210F DUP2 PUSH2 0x1E35 JUMP JUMPDEST SWAP1 POP SWAP2 SWAP1 POP JUMP JUMPDEST PUSH1 0x0 PUSH1 0x20 DUP3 ADD SWAP1 POP DUP2 DUP2 SUB PUSH1 0x0 DUP4 ADD MSTORE PUSH2 0x212F DUP2 PUSH2 0x1E58 JUMP JUMPDEST SWAP1 POP SWAP2 SWAP1 POP JUMP JUMPDEST PUSH1 0x0 PUSH2 0x2140 PUSH2 0x2151 JUMP JUMPDEST SWAP1 POP PUSH2 0x214C DUP3 DUP3 PUSH2 0x2252 JUMP JUMPDEST SWAP2 SWAP1 POP JUMP JUMPDEST PUSH1 0x0 PUSH1 0x40 MLOAD SWAP1 POP SWAP1 JUMP JUMPDEST PUSH1 0x0 PUSH8 0xFFFFFFFFFFFFFFFF DUP3 GT ISZERO PUSH2 0x2176 JUMPI PUSH2 0x2175 PUSH2 0x22BB JUMP JUMPDEST JUMPDEST PUSH2 0x217F DUP3 PUSH2 0x22EA JUMP JUMPDEST SWAP1 POP PUSH1 0x20 DUP2 ADD SWAP1 POP SWAP2 SWAP1 POP JUMP JUMPDEST PUSH1 0x0 DUP2 MLOAD SWAP1 POP SWAP2 SWAP1 POP JUMP JUMPDEST PUSH1 0x0 DUP2 MLOAD SWAP1 POP SWAP2 SWAP1 POP JUMP JUMPDEST PUSH1 0x0 DUP2 SWAP1 POP SWAP3 SWAP2 POP POP JUMP JUMPDEST PUSH1 0x0 DUP3 DUP3 MSTORE PUSH1 0x20 DUP3 ADD SWAP1 POP SWAP3 SWAP2 POP POP JUMP JUMPDEST PUSH1 0x0 PUSH2 0x21C9 DUP3 PUSH2 0x21E6 JUMP JUMPDEST SWAP1 POP SWAP2 SWAP1 POP JUMP JUMPDEST PUSH1 0x0 DUP2 ISZERO ISZERO SWAP1 POP SWAP2 SWAP1 POP JUMP JUMPDEST PUSH1 0x0 DUP2 SWAP1 POP SWAP2 SWAP1 POP JUMP JUMPDEST PUSH1 0x0 PUSH20 0xFFFFFFFFFFFFFFFFFFFFFFFFFFFFFFFFFFFFFFFF DUP3 AND SWAP1 POP SWAP2 SWAP1 POP JUMP JUMPDEST PUSH1 0x0 DUP2 SWAP1 POP SWAP2 SWAP1 POP JUMP JUMPDEST DUP3 DUP2 DUP4 CALLDATACOPY PUSH1 0x0 DUP4 DUP4 ADD MSTORE POP POP POP JUMP JUMPDEST PUSH1 0x0 JUMPDEST DUP4 DUP2 LT ISZERO PUSH2 0x223D JUMPI DUP1 DUP3 ADD MLOAD DUP2 DUP5 ADD MSTORE PUSH1 0x20 DUP2 ADD SWAP1 POP PUSH2 0x2222 JUMP JUMPDEST DUP4 DUP2 GT ISZERO PUSH2 0x224C JUMPI PUSH1 0x0 DUP5 DUP5 ADD MSTORE JUMPDEST POP POP POP POP JUMP JUMPDEST PUSH2 0x225B DUP3 PUSH2 0x22EA JUMP JUMPDEST DUP2 ADD DUP2 DUP2 LT PUSH8 0xFFFFFFFFFFFFFFFF DUP3 GT OR ISZERO PUSH2 0x227A JUMPI PUSH2 0x2279 PUSH2 0x22BB JUMP JUMPDEST JUMPDEST DUP1 PUSH1 0x40 MSTORE POP POP POP JUMP JUMPDEST PUSH1 0x0 PUSH2 0x228E DUP3 PUSH2 0x229F JUMP JUMPDEST SWAP1 POP SWAP2 SWAP1 POP JUMP JUMPDEST PUSH1 0x0 DUP2 SWAP1 POP SWAP2 SWAP1 POP JUMP JUMPDEST PUSH1 0x0 PUSH2 0x22AA DUP3 PUSH2 0x22FB JUMP JUMPDEST SWAP1 POP SWAP2 SWAP1 POP JUMP JUMPDEST PUSH1 0x0 DUP2 SWAP1 POP SWAP2 SWAP1 POP JUMP JUMPDEST PUSH32 0x4E487B7100000000000000000000000000000000000000000000000000000000 PUSH1 0x0 MSTORE PUSH1 0x41 PUSH1 0x4 MSTORE PUSH1 0x24 PUSH1 0x0 REVERT JUMPDEST PUSH1 0x0 PUSH1 0x1F NOT PUSH1 0x1F DUP4 ADD AND SWAP1 POP SWAP2 SWAP1 POP JUMP JUMPDEST PUSH1 0x0 DUP2 PUSH1 0x60 SHL SWAP1 POP SWAP2 SWAP1 POP JUMP JUMPDEST PUSH32 0x436F6E747261637420616C726561647920657869737473000000000000000000 PUSH1 0x0 DUP3 ADD MSTORE POP JUMP JUMPDEST PUSH32 0x7472616E7366657246726F6D2073656E64657220746F2074686973206661696C PUSH1 0x0 DUP3 ADD MSTORE PUSH32 0x6564000000000000000000000000000000000000000000000000000000000000 PUSH1 0x20 DUP3 ADD MSTORE POP JUMP JUMPDEST PUSH2 0x2389 DUP2 PUSH2 0x21BE JUMP JUMPDEST DUP2 EQ PUSH2 0x2394 JUMPI PUSH1 0x0 DUP1 REVERT JUMPDEST POP JUMP JUMPDEST PUSH2 0x23A0 DUP2 PUSH2 0x21D0 JUMP JUMPDEST DUP2 EQ PUSH2 0x23AB JUMPI PUSH1 0x0 DUP1 REVERT JUMPDEST POP JUMP JUMPDEST PUSH2 0x23B7 DUP2 PUSH2 0x21DC JUMP JUMPDEST DUP2 EQ PUSH2 0x23C2 JUMPI PUSH1 0x0 DUP1 REVERT JUMPDEST POP JUMP JUMPDEST PUSH2 0x23CE DUP2 PUSH2 0x2206 JUMP JUMPDEST DUP2 EQ PUSH2 0x23D9 JUMPI PUSH1 0x0 DUP1 REVERT JUMPDEST POP JUMP INVALID PUSH21 0x696D656C6F636B2074696D65206D75737420626520 PUSH10 0x6E207468652066757475 PUSH19 0x65636F6E74726163742061646472657373206D PUSH22 0x7374206E6F74206265207A65726F2061646472657373 COINBASE PUSH5 0x6420636F72 PUSH20 0x73436861696E206461746120636F6E7472616374 KECCAK256 PUSH2 0x6464 PUSH19 0x657373206E6F742065786974726566756E6461 PUSH3 0x6C653A KECCAK256 PUSH21 0x696D656C6F636B206E6F7420796574207061737365 PUSH5 0x746F6B656E KECCAK256 PUSH2 0x6C6C PUSH16 0x77616E6365206D757374206265203E3D KECCAK256 PUSH2 0x6D6F PUSH22 0x6E7455706461746520636F727373436861696E206461 PUSH21 0x6120636F6E74726163742061646472657373206E6F PUSH21 0x2065786974776974686472617761626C653A207469 PUSH14 0x656C6F636B2074696D65206D7573 PUSH21 0x20626520696E2074686520667574757265A2646970 PUSH7 0x7358221220203B SLOAD PUSH32 0x989CDB208115FF9242D44CDBC4D622591E4356FC5AAD7745173054B064736F6C PUSH4 0x43000804 STOP CALLER "
        },
        "methodIdentifiers": {
          "add(address,bytes32,address,bytes32,uint256,address,uint256)": "cbbd8a1d",
          "btcTransfer(address,address,uint256)": "6d0c27a8",
          "btcTransferFrom(address,address,address,uint256)": "d9d1ca47",
          "entryTransaction(uint256,address,bytes32,bytes32)": "449b0395",
          "exitTransaction(address,bytes32,uint256,address,uint256)": "159a962c",
          "getContract(bytes32)": "e16c7d98",
          "reclaimTransaction(bytes32)": "4cc28a19",
          "reclaimTransaction1(bytes32)": "40d1ce73",
          "registerContract(address)": "22a5dde4",
          "requireMock(bool,string)": "f46611f9",
          "update(address,bytes32,bytes32)": "64ff3004"
        }
      }
    }
  }
}