{
  "_format": "hh-sol-artifact-1",
  "contractName": "BurnToClaim",
  "sourceName": "contracts/BurnToClaim.sol",
  "abi": [
    {
      "anonymous": false,
      "inputs": [
        {
          "indexed": true,
          "internalType": "bytes32",
          "name": "transactionId",
          "type": "bytes32"
        }
      ],
      "name": "entryTransactionEvent",
      "type": "event"
    },
    {
      "anonymous": false,
      "inputs": [
        {
          "indexed": true,
          "internalType": "bytes32",
          "name": "transactionId",
          "type": "bytes32"
        },
        {
          "indexed": true,
          "internalType": "address",
          "name": "sender",
          "type": "address"
        },
        {
          "indexed": true,
          "internalType": "address",
          "name": "receiver",
          "type": "address"
        },
        {
          "indexed": false,
          "internalType": "address",
          "name": "tokenContract",
          "type": "address"
        },
        {
          "indexed": false,
          "internalType": "uint256",
          "name": "amount",
          "type": "uint256"
        },
        {
          "indexed": false,
          "internalType": "bytes32",
          "name": "hashlock",
          "type": "bytes32"
        },
        {
          "indexed": false,
          "internalType": "uint256",
          "name": "timelock",
          "type": "uint256"
        }
      ],
      "name": "exitTransactionEvent",
      "type": "event"
    },
    {
      "anonymous": false,
      "inputs": [
        {
          "indexed": true,
          "internalType": "bytes32",
          "name": "transactionId",
          "type": "bytes32"
        }
      ],
      "name": "reclaimTransactionEvent",
      "type": "event"
    },
    {
      "anonymous": false,
      "inputs": [
        {
          "indexed": false,
          "internalType": "string",
          "name": "message",
          "type": "string"
        }
      ],
      "name": "requireMockEvent",
      "type": "event"
    },
    {
      "anonymous": false,
      "inputs": [
        {
          "indexed": false,
          "internalType": "string",
          "name": "message",
          "type": "string"
        }
      ],
      "name": "revertMockEvent",
      "type": "event"
    },
    {
      "inputs": [
        {
          "internalType": "address",
          "name": "_crosschainContractAddress",
          "type": "address"
        },
        {
          "internalType": "bytes32",
          "name": "_transactionId",
          "type": "bytes32"
        },
        {
          "internalType": "address",
          "name": "_burnAddress",
          "type": "address"
        },
        {
          "internalType": "bytes32",
          "name": "_hashlock",
          "type": "bytes32"
        },
        {
          "internalType": "uint256",
          "name": "_timelock",
          "type": "uint256"
        },
        {
          "internalType": "address",
          "name": "_tokenContract",
          "type": "address"
        },
        {
          "internalType": "uint256",
          "name": "_amount",
          "type": "uint256"
        }
      ],
      "name": "add",
      "outputs": [],
      "stateMutability": "nonpayable",
      "type": "function"
    },
    {
      "inputs": [
        {
          "internalType": "address",
          "name": "_tokenContract",
          "type": "address"
        },
        {
          "internalType": "address",
          "name": "_recipient",
          "type": "address"
        },
        {
          "internalType": "uint256",
          "name": "_amount",
          "type": "uint256"
        }
      ],
      "name": "btcTransfer",
      "outputs": [],
      "stateMutability": "nonpayable",
      "type": "function"
    },
    {
      "inputs": [
        {
          "internalType": "address",
          "name": "_tokenContract",
          "type": "address"
        },
        {
          "internalType": "address",
          "name": "_sender",
          "type": "address"
        },
        {
          "internalType": "address",
          "name": "_recipient",
          "type": "address"
        },
        {
          "internalType": "uint256",
          "name": "_amount",
          "type": "uint256"
        }
      ],
      "name": "btcTransferFrom",
      "outputs": [],
      "stateMutability": "nonpayable",
      "type": "function"
    },
    {
      "inputs": [
        {
          "internalType": "uint256",
          "name": "_amount",
          "type": "uint256"
        },
        {
          "internalType": "address",
          "name": "_receiver",
          "type": "address"
        },
        {
          "internalType": "bytes32",
          "name": "_transactionId",
          "type": "bytes32"
        },
        {
          "internalType": "bytes32",
          "name": "_preimage",
          "type": "bytes32"
        }
      ],
      "name": "entryTransaction",
      "outputs": [
        {
          "internalType": "bool",
          "name": "",
          "type": "bool"
        }
      ],
      "stateMutability": "nonpayable",
      "type": "function"
    },
    {
      "inputs": [
        {
          "internalType": "address",
          "name": "_burnAddress",
          "type": "address"
        },
        {
          "internalType": "bytes32",
          "name": "_hashlock",
          "type": "bytes32"
        },
        {
          "internalType": "uint256",
          "name": "_timelock",
          "type": "uint256"
        },
        {
          "internalType": "address",
          "name": "_tokenContract",
          "type": "address"
        },
        {
          "internalType": "uint256",
          "name": "_amount",
          "type": "uint256"
        }
      ],
      "name": "exitTransaction",
      "outputs": [
        {
          "internalType": "bytes32",
          "name": "transactionId",
          "type": "bytes32"
        }
      ],
      "stateMutability": "nonpayable",
      "type": "function"
    },
    {
      "inputs": [
        {
          "internalType": "bytes32",
          "name": "_transactionId",
          "type": "bytes32"
        }
      ],
      "name": "getContract",
      "outputs": [
        {
          "internalType": "address",
          "name": "sender",
          "type": "address"
        },
        {
          "internalType": "address",
          "name": "receiver",
          "type": "address"
        },
        {
          "internalType": "address",
          "name": "tokenContract",
          "type": "address"
        },
        {
          "internalType": "uint256",
          "name": "amount",
          "type": "uint256"
        },
        {
          "internalType": "bytes32",
          "name": "hashlock",
          "type": "bytes32"
        },
        {
          "internalType": "uint256",
          "name": "timelock",
          "type": "uint256"
        },
        {
          "internalType": "bool",
          "name": "withdrawn",
          "type": "bool"
        },
        {
          "internalType": "bool",
          "name": "refunded",
          "type": "bool"
        },
        {
          "internalType": "bytes32",
          "name": "preimage",
          "type": "bytes32"
        }
      ],
      "stateMutability": "view",
      "type": "function"
    },
    {
      "inputs": [
        {
          "internalType": "bytes32",
          "name": "_transactionId",
          "type": "bytes32"
        }
      ],
      "name": "reclaimTransaction",
      "outputs": [
        {
          "internalType": "bool",
          "name": "",
          "type": "bool"
        }
      ],
      "stateMutability": "nonpayable",
      "type": "function"
    },
    {
      "inputs": [
        {
          "internalType": "bytes32",
          "name": "_transactionId",
          "type": "bytes32"
        }
      ],
      "name": "reclaimTransaction1",
      "outputs": [
        {
          "internalType": "bool",
          "name": "",
          "type": "bool"
        }
      ],
      "stateMutability": "nonpayable",
      "type": "function"
    },
    {
      "inputs": [
        {
          "internalType": "address",
          "name": "contractAddress",
          "type": "address"
        }
      ],
      "name": "registerContract",
      "outputs": [],
      "stateMutability": "nonpayable",
      "type": "function"
    },
    {
      "inputs": [
        {
          "internalType": "bool",
          "name": "result",
          "type": "bool"
        },
        {
          "internalType": "string",
          "name": "message",
          "type": "string"
        }
      ],
      "name": "requireMock",
      "outputs": [],
      "stateMutability": "nonpayable",
      "type": "function"
    },
    {
      "inputs": [
        {
          "internalType": "address",
          "name": "_crosschainContractAddress",
          "type": "address"
        },
        {
          "internalType": "bytes32",
          "name": "_transactionId",
          "type": "bytes32"
        },
        {
          "internalType": "bytes32",
          "name": "_preimage",
          "type": "bytes32"
        }
      ],
      "name": "update",
      "outputs": [],
      "stateMutability": "nonpayable",
      "type": "function"
    }
  ],
  "bytecode": "0x608060405234801561001057600080fd5b50612530806100206000396000f3fe608060405234801561001057600080fd5b50600436106100a95760003560e01c806364ff30041161007157806364ff30041461018a5780636d0c27a8146101a6578063cbbd8a1d146101c2578063d9d1ca47146101de578063e16c7d98146101fa578063f46611f914610232576100a9565b8063159a962c146100ae57806322a5dde4146100de57806340d1ce73146100fa578063449b03951461012a5780634cc28a191461015a575b600080fd5b6100c860048036038101906100c39190611b9e565b61024e565b6040516100d591906120b9565b60405180910390f35b6100f860048036038101906100f391906119d6565b61074f565b005b610114600480360381019061010f9190611c92565b61087b565b604051610121919061209e565b60405180910390f35b610144600480360381019061013f9190611d0d565b610bb8565b604051610151919061209e565b60405180910390f35b610174600480360381019061016f9190611c92565b610ecc565b604051610181919061209e565b60405180910390f35b6101a4600480360381019061019f9190611b4f565b611243565b005b6101c060048036038101906101bb9190611a62565b6112f6565b005b6101dc60048036038101906101d79190611ab1565b6113c7565b005b6101f860048036038101906101f391906119ff565b61161f565b005b610214600480360381019061020f9190611c92565b6116f3565b60405161022999989796959493929190611f6c565b60405180910390f35b61024c60048036038101906102479190611c3e565b611824565b005b600080429050610296600084116040518060400160405280601881526020017f746f6b656e20616d6f756e74206d757374206265203e20300000000000000000815250611824565b610345838573ffffffffffffffffffffffffffffffffffffffff1663dd62ed3e33306040518363ffffffff1660e01b81526004016102d5929190611f43565b60206040518083038186803b1580156102ed57600080fd5b505afa158015610301573d6000803e3d6000fd5b505050506040513d601f19601f820116820180604052508101906103259190611ce4565b101560405180606001604052806021815260200161247960219139611824565b6103698186116040518060600160405280602381526020016123dd60239139611824565b6002338886868a8a60405160200161038696959493929190611ea1565b6040516020818303038152906040526040516103a29190611f2c565b602060405180830381855afa1580156103bf573d6000803e3d6000fd5b5050506040513d601f19601f820116820180604052508101906103e29190611cbb565b91506103ed8261186d565b1561042d576040517f08c379a0000000000000000000000000000000000000000000000000000000008152600401610424906120f6565b60405180910390fd5b8373ffffffffffffffffffffffffffffffffffffffff166323b872dd3389866040518463ffffffff1660e01b815260040161046a93929190611ff9565b602060405180830381600087803b15801561048457600080fd5b505af1158015610498573d6000803e3d6000fd5b505050506040513d601f19601f820116820180604052508101906104bc9190611c15565b6104fb576040517f08c379a00000000000000000000000000000000000000000000000000000000081526004016104f290612116565b60405180910390fd5b6040518061012001604052803373ffffffffffffffffffffffffffffffffffffffff1681526020018873ffffffffffffffffffffffffffffffffffffffff1681526020018573ffffffffffffffffffffffffffffffffffffffff1681526020018481526020018781526020018681526020016000151581526020016000151581526020016000801b81525060008084815260200190815260200160002060008201518160000160006101000a81548173ffffffffffffffffffffffffffffffffffffffff021916908373ffffffffffffffffffffffffffffffffffffffff16021790555060208201518160010160006101000a81548173ffffffffffffffffffffffffffffffffffffffff021916908373ffffffffffffffffffffffffffffffffffffffff16021790555060408201518160020160006101000a81548173ffffffffffffffffffffffffffffffffffffffff021916908373ffffffffffffffffffffffffffffffffffffffff160217905550606082015181600301556080820151816004015560a0820151816005015560c08201518160060160006101000a81548160ff02191690831515021790555060e08201518160060160016101000a81548160ff02191690831515021790555061010082015181600701559050508673ffffffffffffffffffffffffffffffffffffffff163373ffffffffffffffffffffffffffffffffffffffff16837fa2a72d0528ccc829345e59386d5d35f088e634e3f387a029c08067fa727c654687878b4260405161073d9493929190612059565b60405180910390a45095945050505050565b6107a1600073ffffffffffffffffffffffffffffffffffffffff168273ffffffffffffffffffffffffffffffffffffffff16141560405180606001604052806029815260200161240060299139611824565b60405180604001604052808273ffffffffffffffffffffffffffffffffffffffff16815260200160011515815250600160008373ffffffffffffffffffffffffffffffffffffffff1673ffffffffffffffffffffffffffffffffffffffff16815260200190815260200160002060008201518160000160006101000a81548173ffffffffffffffffffffffffffffffffffffffff021916908373ffffffffffffffffffffffffffffffffffffffff16021790555060208201518160000160146101000a81548160ff02191690831515021790555090505050565b60006108c46108898361186d565b6040518060400160405280601c81526020017f7472616e73616374696f6e496420646f6573206e6f7420657869737400000000815250611824565b6109663373ffffffffffffffffffffffffffffffffffffffff1660008085815260200190815260200160002060000160009054906101000a900473ffffffffffffffffffffffffffffffffffffffff1673ffffffffffffffffffffffffffffffffffffffff16146040518060400160405280601681526020017f726566756e6461626c653a206e6f742073656e64657200000000000000000000815250611824565b6109ce6000151560008085815260200190815260200160002060060160019054906101000a900460ff161515146040518060400160405280601c81526020017f726566756e6461626c653a20616c726561647920726566756e64656400000000815250611824565b610a366000151560008085815260200190815260200160002060060160009054906101000a900460ff161515146040518060400160405280601d81526020017f726566756e6461626c653a20616c72656164792077697468647261776e000000815250611824565b6000806000848152602001908152602001600020905060018160060160016101000a81548160ff0219169083151502179055508060020160009054906101000a900473ffffffffffffffffffffffffffffffffffffffff1673ffffffffffffffffffffffffffffffffffffffff1663a9059cbb8260000160009054906101000a900473ffffffffffffffffffffffffffffffffffffffff1683600301546040518363ffffffff1660e01b8152600401610af0929190612030565b602060405180830381600087803b158015610b0a57600080fd5b505af1158015610b1e573d6000803e3d6000fd5b505050506040513d601f19601f82011682018060405250810190610b429190611c15565b610b81576040517f08c379a0000000000000000000000000000000000000000000000000000000008152600401610b7890612116565b60405180910390fd5b827f7b932d7c3c50d56f3e342fca080984c95d87d5611ec3487235c1854056cc8eb460405160405180910390a26001915050919050565b6000610c01610bc68461186d565b6040518060400160405280601c81526020017f7472616e73616374696f6e496420646f6573206e6f7420657869737400000000815250611824565b610cc5600283604051602001610c179190611f11565b604051602081830303815290604052604051610c339190611f2c565b602060405180830381855afa158015610c50573d6000803e3d6000fd5b5050506040513d601f19601f82011682018060405250810190610c739190611cbb565b60008086815260200190815260200160002060040154146040518060400160405280601c81526020017f686173686c6f636b206861736820646f6573206e6f74206d6174636800000000815250611824565b610d2d6000151560008086815260200190815260200160002060060160009054906101000a900460ff161515146040518060400160405280601f81526020017f776974686472617761626c653a20616c72656164792077697468647261776e00815250611824565b610d664260008086815260200190815260200160002060050154116040518060600160405280603181526020016124ca60319139611824565b6000806000858152602001908152602001600020905082816007018190555060018160060160006101000a81548160ff0219169083151502179055508060020160009054906101000a900473ffffffffffffffffffffffffffffffffffffffff1673ffffffffffffffffffffffffffffffffffffffff1663a9059cbb86886040518363ffffffff1660e01b8152600401610e01929190612030565b602060405180830381600087803b158015610e1b57600080fd5b505af1158015610e2f573d6000803e3d6000fd5b505050506040513d601f19601f82011682018060405250810190610e539190611c15565b610e92576040517f08c379a0000000000000000000000000000000000000000000000000000000008152600401610e8990612116565b60405180910390fd5b837fccc078c3cc52c3238bfb3152392fb494a9394ecab9842bb9c46395dc84ad29c660405160405180910390a26001915050949350505050565b6000610f15610eda8361186d565b6040518060400160405280601c81526020017f7472616e73616374696f6e496420646f6573206e6f7420657869737400000000815250611824565b610fb73373ffffffffffffffffffffffffffffffffffffffff1660008085815260200190815260200160002060000160009054906101000a900473ffffffffffffffffffffffffffffffffffffffff1673ffffffffffffffffffffffffffffffffffffffff16146040518060400160405280601681526020017f726566756e6461626c653a206e6f742073656e64657200000000000000000000815250611824565b61101f6000151560008085815260200190815260200160002060060160019054906101000a900460ff161515146040518060400160405280601c81526020017f726566756e6461626c653a20616c726561647920726566756e64656400000000815250611824565b6110876000151560008085815260200190815260200160002060060160009054906101000a900460ff161515146040518060400160405280601d81526020017f726566756e6461626c653a20616c72656164792077697468647261776e000000815250611824565b6110c14260008085815260200190815260200160002060050154111560405180606001604052806023815260200161245660239139611824565b6000806000848152602001908152602001600020905060018160060160016101000a81548160ff0219169083151502179055508060020160009054906101000a900473ffffffffffffffffffffffffffffffffffffffff1673ffffffffffffffffffffffffffffffffffffffff1663a9059cbb8260000160009054906101000a900473ffffffffffffffffffffffffffffffffffffffff1683600301546040518363ffffffff1660e01b815260040161117b929190612030565b602060405180830381600087803b15801561119557600080fd5b505af11580156111a9573d6000803e3d6000fd5b505050506040513d601f19601f820116820180604052508101906111cd9190611c15565b61120c576040517f08c379a000000000000000000000000000000000000000000000000000000000815260040161120390612116565b60405180910390fd5b827f7b932d7c3c50d56f3e342fca080984c95d87d5611ec3487235c1854056cc8eb460405160405180910390a26001915050919050565b6112b4600160008573ffffffffffffffffffffffffffffffffffffffff1673ffffffffffffffffffffffffffffffffffffffff16815260200190815260200160002060000160149054906101000a900460ff1660405180606001604052806030815260200161249a60309139611824565b6000806000848152602001908152602001600020905081816007018190555060018160060160006101000a81548160ff02191690831515021790555050505050565b8273ffffffffffffffffffffffffffffffffffffffff1663a9059cbb83836040518363ffffffff1660e01b8152600401611331929190612030565b602060405180830381600087803b15801561134b57600080fd5b505af115801561135f573d6000803e3d6000fd5b505050506040513d601f19601f820116820180604052508101906113839190611c15565b6113c2576040517f08c379a00000000000000000000000000000000000000000000000000000000081526004016113b990612116565b60405180910390fd5b505050565b611438600160008973ffffffffffffffffffffffffffffffffffffffff1673ffffffffffffffffffffffffffffffffffffffff16815260200190815260200160002060000160149054906101000a900460ff166040518060600160405280602d8152602001612429602d9139611824565b6040518061012001604052803373ffffffffffffffffffffffffffffffffffffffff1681526020018673ffffffffffffffffffffffffffffffffffffffff1681526020018373ffffffffffffffffffffffffffffffffffffffff1681526020018281526020018581526020018481526020016000151581526020016000151581526020016000801b81525060008088815260200190815260200160002060008201518160000160006101000a81548173ffffffffffffffffffffffffffffffffffffffff021916908373ffffffffffffffffffffffffffffffffffffffff16021790555060208201518160010160006101000a81548173ffffffffffffffffffffffffffffffffffffffff021916908373ffffffffffffffffffffffffffffffffffffffff16021790555060408201518160020160006101000a81548173ffffffffffffffffffffffffffffffffffffffff021916908373ffffffffffffffffffffffffffffffffffffffff160217905550606082015181600301556080820151816004015560a0820151816005015560c08201518160060160006101000a81548160ff02191690831515021790555060e08201518160060160016101000a81548160ff021916908315150217905550610100820151816007015590505050505050505050565b8373ffffffffffffffffffffffffffffffffffffffff166323b872dd8484846040518463ffffffff1660e01b815260040161165c93929190611ff9565b602060405180830381600087803b15801561167657600080fd5b505af115801561168a573d6000803e3d6000fd5b505050506040513d601f19601f820116820180604052508101906116ae9190611c15565b6116ed576040517f08c379a00000000000000000000000000000000000000000000000000000000081526004016116e490612116565b60405180910390fd5b50505050565b600080600080600080600080600080151561170d8b61186d565b151514156117465760008060008060008060008060008460001b94508060001b9050985098509850985098509850985098509850611817565b60008060008c815260200190815260200160002090508060000160009054906101000a900473ffffffffffffffffffffffffffffffffffffffff168160010160009054906101000a900473ffffffffffffffffffffffffffffffffffffffff168260020160009054906101000a900473ffffffffffffffffffffffffffffffffffffffff168360030154846004015485600501548660060160009054906101000a900460ff168760060160019054906101000a900460ff168860070154995099509950995099509950995099509950505b9193959799909294969850565b600015158215151415611869577f560da9d4a39e8b8b206d502334ec642be7774eaaf28dce67f25da29a45da89ec8160405161186091906120d4565b60405180910390a15b5050565b60008073ffffffffffffffffffffffffffffffffffffffff1660008084815260200190815260200160002060000160009054906101000a900473ffffffffffffffffffffffffffffffffffffffff1673ffffffffffffffffffffffffffffffffffffffff1614159050919050565b60006118ee6118e98461215b565b612136565b90508281526020810184848401111561190657600080fd5b611911848285612210565b509392505050565b60008135905061192881612380565b92915050565b60008135905061193d81612397565b92915050565b60008151905061195281612397565b92915050565b600081359050611967816123ae565b92915050565b60008151905061197c816123ae565b92915050565b600082601f83011261199357600080fd5b81356119a38482602086016118db565b91505092915050565b6000813590506119bb816123c5565b92915050565b6000815190506119d0816123c5565b92915050565b6000602082840312156119e857600080fd5b60006119f684828501611919565b91505092915050565b60008060008060808587031215611a1557600080fd5b6000611a2387828801611919565b9450506020611a3487828801611919565b9350506040611a4587828801611919565b9250506060611a56878288016119ac565b91505092959194509250565b600080600060608486031215611a7757600080fd5b6000611a8586828701611919565b9350506020611a9686828701611919565b9250506040611aa7868287016119ac565b9150509250925092565b600080600080600080600060e0888a031215611acc57600080fd5b6000611ada8a828b01611919565b9750506020611aeb8a828b01611958565b9650506040611afc8a828b01611919565b9550506060611b0d8a828b01611958565b9450506080611b1e8a828b016119ac565b93505060a0611b2f8a828b01611919565b92505060c0611b408a828b016119ac565b91505092959891949750929550565b600080600060608486031215611b6457600080fd5b6000611b7286828701611919565b9350506020611b8386828701611958565b9250506040611b9486828701611958565b9150509250925092565b600080600080600060a08688031215611bb657600080fd5b6000611bc488828901611919565b9550506020611bd588828901611958565b9450506040611be6888289016119ac565b9350506060611bf788828901611919565b9250506080611c08888289016119ac565b9150509295509295909350565b600060208284031215611c2757600080fd5b6000611c3584828501611943565b91505092915050565b60008060408385031215611c5157600080fd5b6000611c5f8582860161192e565b925050602083013567ffffffffffffffff811115611c7c57600080fd5b611c8885828601611982565b9150509250929050565b600060208284031215611ca457600080fd5b6000611cb284828501611958565b91505092915050565b600060208284031215611ccd57600080fd5b6000611cdb8482850161196d565b91505092915050565b600060208284031215611cf657600080fd5b6000611d04848285016119c1565b91505092915050565b60008060008060808587031215611d2357600080fd5b6000611d31878288016119ac565b9450506020611d4287828801611919565b9350506040611d5387828801611958565b9250506060611d6487828801611958565b91505092959194509250565b611d79816121be565b82525050565b611d90611d8b826121be565b612283565b82525050565b611d9f816121d0565b82525050565b611dae816121dc565b82525050565b611dc5611dc0826121dc565b612295565b82525050565b6000611dd68261218c565b611de081856121a2565b9350611df081856020860161221f565b80840191505092915050565b6000611e0782612197565b611e1181856121ad565b9350611e2181856020860161221f565b611e2a816122ea565b840191505092915050565b6000611e426017836121ad565b9150611e4d82612308565b602082019050919050565b6000611e656022836121ad565b9150611e7082612331565b604082019050919050565b611e8481612206565b82525050565b611e9b611e9682612206565b6122b1565b82525050565b6000611ead8289611d7f565b601482019150611ebd8288611d7f565b601482019150611ecd8287611d7f565b601482019150611edd8286611e8a565b602082019150611eed8285611db4565b602082019150611efd8284611e8a565b602082019150819050979650505050505050565b6000611f1d8284611db4565b60208201915081905092915050565b6000611f388284611dcb565b915081905092915050565b6000604082019050611f586000830185611d70565b611f656020830184611d70565b9392505050565b600061012082019050611f82600083018c611d70565b611f8f602083018b611d70565b611f9c604083018a611d70565b611fa96060830189611e7b565b611fb66080830188611da5565b611fc360a0830187611e7b565b611fd060c0830186611d96565b611fdd60e0830185611d96565b611feb610100830184611da5565b9a9950505050505050505050565b600060608201905061200e6000830186611d70565b61201b6020830185611d70565b6120286040830184611e7b565b949350505050565b60006040820190506120456000830185611d70565b6120526020830184611e7b565b9392505050565b600060808201905061206e6000830187611d70565b61207b6020830186611e7b565b6120886040830185611da5565b6120956060830184611e7b565b95945050505050565b60006020820190506120b36000830184611d96565b92915050565b60006020820190506120ce6000830184611da5565b92915050565b600060208201905081810360008301526120ee8184611dfc565b905092915050565b6000602082019050818103600083015261210f81611e35565b9050919050565b6000602082019050818103600083015261212f81611e58565b9050919050565b6000612140612151565b905061214c8282612252565b919050565b6000604051905090565b600067ffffffffffffffff821115612176576121756122bb565b5b61217f826122ea565b9050602081019050919050565b600081519050919050565b600081519050919050565b600081905092915050565b600082825260208201905092915050565b60006121c9826121e6565b9050919050565b60008115159050919050565b6000819050919050565b600073ffffffffffffffffffffffffffffffffffffffff82169050919050565b6000819050919050565b82818337600083830152505050565b60005b8381101561223d578082015181840152602081019050612222565b8381111561224c576000848401525b50505050565b61225b826122ea565b810181811067ffffffffffffffff8211171561227a576122796122bb565b5b80604052505050565b600061228e8261229f565b9050919050565b6000819050919050565b60006122aa826122fb565b9050919050565b6000819050919050565b7f4e487b7100000000000000000000000000000000000000000000000000000000600052604160045260246000fd5b6000601f19601f8301169050919050565b60008160601b9050919050565b7f436f6e747261637420616c726561647920657869737473000000000000000000600082015250565b7f7472616e7366657246726f6d2073656e64657220746f2074686973206661696c60008201527f6564000000000000000000000000000000000000000000000000000000000000602082015250565b612389816121be565b811461239457600080fd5b50565b6123a0816121d0565b81146123ab57600080fd5b50565b6123b7816121dc565b81146123c257600080fd5b50565b6123ce81612206565b81146123d957600080fd5b5056fe74696d656c6f636b2074696d65206d75737420626520696e2074686520667574757265636f6e74726163742061646472657373206d757374206e6f74206265207a65726f206164647265737341646420636f727373436861696e206461746120636f6e74726163742061646472657373206e6f742065786974726566756e6461626c653a2074696d656c6f636b206e6f742079657420706173736564746f6b656e20616c6c6f77616e6365206d757374206265203e3d20616d6f756e7455706461746520636f727373436861696e206461746120636f6e74726163742061646472657373206e6f742065786974776974686472617761626c653a2074696d656c6f636b2074696d65206d75737420626520696e2074686520667574757265a2646970667358221220203b547f989cdb208115ff9242d44cdbc4d622591e4356fc5aad7745173054b064736f6c63430008040033",
  "linkReferences": {},
  "deployedLinkReferences": {}
}